:020000024000BC
:10800000584C012039A20400EDE6040025A204002A
:1080100025A2040025A2040025A2040025A2040034
:10802000000000000000000000000000ADA30400FC
:1080300025A20400000000003DA3040025A20400C6
:1080400029A5040029A5040029A5040029A50400E8
:1080500029A5040029A5040029A5040029A50400D8
:1080600029A5040029A5040029A5040029A50400C8
:1080700029A5040029A5040029A5040029A50400B8
:10847C0053B94AB9002908BF00281CBF4FF0FF317F
:10848C004FF0FF3000F00CB8ADF1080C6DE904CEE4
:10849C0000F010F8DDF804E0DDE9022304B07047C9
:1084AC00704700BF034613F8012B002AFBD1181AA2
:1084BC00013870472DE9F04786468C460846089EE1
:1084CC00154674461946002B40F0C1808542B2FA1D
:1084DC0082F245D94AB1C2F1200300FA02FC954060
:1084EC0094402EFA03F343EA0C0C4FEA154EA8B253
:1084FC00230CBCFBFEF80EFB18CC08FB00F943EA7E
:10850C000C43994528D9EB1808F1FF3704D299454B
:10851C0002D9A8F102072B44A3EB0903A4B2B3FBC5
:10852C00FEFC0EFB1C330CFB00F044EA0344A0429F
:10853C0014D92C190CF1FF3304D2A04202D9ACF19E
:10854C0002032C44241A43EA07401EB1D4400023F2
:10855C0034607360BDE8F0874746DDE76346F1E7BA
:10856C0092BB431B01214FEA154EAFB2200CB3FB5B
:10857C00FEFC0EFB1C330CFB07F840EA034398454A
:10858C0061D9EB180CF1FF3004D2984502D9ACF14B
:10859C0002002B44A3EB0803A4B2B3FBFEFC0EFBBE
:1085AC001C330CFB07F744EA0344A7424DD92C19A2
:1085BC000CF1FF3304D2A74202D9ACF102032C44D4
:1085CC00E41B43EA0040C0E7C2F12003954094400D
:1085DC0020FA03F12EFA03F34FEA154E9040AFB296
:1085EC000343B1FBFEFC0EFB1C10190C0CFB07F833
:1085FC0041EA0041884522D969180CF1FF3004D2B8
:10860C00884502D9ACF102002944A1EB08019BB2C8
:10861C00B1FBFEFC0EFB1C110CFB07F743EA0143FC
:10862C009F420ED9EB180CF1FF3104D29F4202D9B4
:10863C00ACF102012B44DB1B41EA004193E760469D
:10864C00E3E76146F7E76046A4E76346B8E7834291
:10865C0006D916B9002108467CE7C6E900E0F9E71F
:10866C00B3FA83F78FB9834201D3724508D8BEEBB6
:10867C00020460EB030301209C461EB9002169E74C
:10868C003846FAE7C6E9004CF8E7C7F1200CBB40C6
:10869C000EFA07F522FA0CF42EFA0CF1BA401C4330
:1086AC0020FA0CF3B8404FEA144901431FFA84FE38
:1086BC00B3FBF9F809FB18300B0C08FB0EFA43EA74
:1086CC0000439A4540D9E31808F1FF3004D29A458B
:1086DC0002D9A8F102002344A3EB0A0389B2B3FB2D
:1086EC00F9F809FB183308FB0EFE41EA03418E45ED
:1086FC002CD9611808F1FF3304D28E4502D9A8F1A8
:10870C000203214443EA0040A1EB0E01A0FB0298B6
:10871C004145CE46434602D306D14D4504D20138DD
:10872C00B9EB020E68EB0403002EA7D0B5EB0E02DA
:10873C0061EB030101FA0CFC22FA07F3F9404CEA55
:10874C000303C6E9003199E74046C5E74346D9E73C
:10875C00014805F00BBB00BFB4000500014805F053
:10876C0005BB00BFCF00050007B50023094A0A4826
:10877C00CDE9002304F002FF0023084A0848CDE9A4
:10878C00002304F0FBFE074803B05DF804EB05F092
:10879C00EDBA00BF5A62020010320120366E0100A1
:1087AC0048320120EB0005002DE9F04F91B0009309
:1087BC0002F004030293C2F3C2030133840705469B
:1087CC000E46DDF868800392059340F0BB81041DD2
:1087DC0030B1072909D86FF01B0011B0BDE8F08F3C
:1087EC0001F007063444C6F10806009B4FF000095F
:1087FC004FF0040A591E4FF0FF334F460193CB46FE
:10880C005346CDF810900DB1009A226005980028BF
:10881C0000F3E8809848009A824203D3974882423A
:10882C00C0F0E080039AA4EB050E92074FEA9E007D
:10883C0000F103810F2F00F2B180002D00F00581B3
:10884C0007F140020DEB020C019A0CF8200C0CF80D
:10885C00102C049801300490E7E07A285DD84B285E
:10886C000ED8472859D829282DD8252852D054D885
:10887C0020287AD02338D0F1000B4BEB000B74E09E
:10888C004C382E2849D8DFE800F070484848484852
:10889C004848484848484B48484848484848485938
:1088AC00484B4B595959704B6D487048184B1848E8
:1088BC0048827F4B48484B487F0000204FF0000B0C
:1088CC004FF0040A38E001222A38C0B202FA00F054
:1088DC0010EA0E0F49D110F0625C2FD110EA020B96
:1088EC0043D06046013C5444B4FBFAF40AFB04F454
:1088FC00002D61D0A3EB050CA444B4453FF66BAF3F
:10890C00002868D1042B47D158F8043B236004237A
:10891C0004342AE0019A013A01924FF0000B24E052
:10892C0011F8010C6C2834D1002011F8023C83465C
:10893C006C2BC5D14FF0080A5346D3E708F1070852
:10894C0028F00708073424F00704F8E802AB35B127
:10895C0006982044B0423FF63EAFC4E900AB4FF05E
:10896C00000B08344FF0080A534611F8010F002889
:10897C0078D0BBF1000F7FF470AF2528F5D14FF004
:10898C00010B019B013301934FF0040AECE75846AD
:10899C0094E700208346A5E7082B02D06FF0150062
:1089AC001BE708F1070828F00708F8E80223C4E9D8
:1089BC00002308230834D8E768B9042B02D108F146
:1089CC000408A4E7082BE9D108F1070828F00708E8
:1089DC0008F10808EDE7059A013A059258F8042BBE
:1089EC00009210E7039A900720D54FF0010CA4EBEE
:1089FC00050E4FEA9E00BEF5007FCFD20F2FCDD8CB
:108A0C00F5B107F140020DEB020E019AC0B20EF85F
:108A1C00200C0EF8102CBCF1000F3FF41AAF60F0D4
:108A2C007F000EF8200C09F101090137C5F108028D
:108A3C004FF6DA7E0434069297E74FF0000CDAE733
:108A4C00BCF1000F01D00136EFE702980236002886
:108A5C00EBD10098CDE90631FFF724FDDDE90631B5
:108A6C000644E2E7631BB3F5806F97D245B9A6F1D4
:108A7C000804E018B1E600BF24F404001C0B050048
:108A8C00029A9B0828602B709DF81030C2B1EB70D5
:108A9C0085F80290B9F1000F05D0002208A8C5F1A5
:108AAC00010C97420ED14FF0000AC5F101030DF1F4
:108ABC00200801930DF1300B574512D1601B8CE649
:108ACC006B70E5E710F8013B190608D50CEB040EAA
:108ADC00B64503F07F033FF67EAE04F8013B01324E
:108AEC00DFE7B9F1000F03D098F90020002A17DB5B
:108AFC00029BD3B11AF80B2004F8012B0022019B26
:108B0C0018191044B0423FF666AE98F80000009970
:108B1C0004F8010B2046039206F0E5FB039A14447B
:108B2C000AF1010A08F10108C6E798F8002055F887
:108B3C0022300093029B009845F82230FFF7B2FCDC
:108B4C00421CDCE76FF00D0047E600BF2DE9F04F4B
:108B5C0097B000AFD7F880B03B62CBF3C0030446AC
:108B6C00894690F802A0FA62BB6141B94578007859
:108B7C000AEB800020444D4517D8A0EB0409E3789C
:108B8C00FB61BAF1000F02D01BF0010F16D1FB698B
:108B9C0053BBFB6A1BB1494620463A6A98474D467F
:108BAC0028465C37BD46BDE8F08F461C3046FFF7C3
:108BBC0079FC0130304409F10109DCE76268237863
:108BCC007A62FA6A9900796104EB8301002A40F019
:108BDC0001810E464FF000084D4601EB0A094E4547
:108BEC004CD101EB0A0610E01BF0020FD1D0237818
:108BFC009A007A61626804EB83017A62FA6A002A4D
:108C0C0077D14D46904601EB0A061BF0050F0CBFC1
:108C1C0002230123FB62FB6906EB430A0BF0020300
:108C2C00BB625645BCD016F8021B16F8013C54F832
:108C3C002390994B994502D3984B994536D3BB69F0
:108C4C00002B40D0786A05F06AF800283BD0E94642
:108C5C008AB06A46924B53617B6AC2E906314FF483
:108C6C00007313848F4B42F8103F00234FF41251C2
:108C7C008D4800F019FD023DCD46D2E716F8013BB8
:108C8C00F96254F82300FFF70DFCD7F88430F96A29
:108C9C0001304BB1D7F8883098453EBFD7F88430B7
:108CAC0023F8180008F10108054498E7BB6923B1C3
:108CBC00786A05F034F80028C9D11BF0010F05D1F2
:108CCC00FB6AED1AADE7BB6A002BAAD04846FFF74A
:108CDC00E9FBD7F8843053B1D7F8883098453FBFBB
:108CEC00D7F88420431C22F8183008F101080544F9
:108CFC0097E7BAF1000F73D01BF0040673D0D0467F
:108D0C00002607F1480052463B61B96206F0EBFAC7
:108D1C00B96A3B6901EB0A02BA62FA69F969520055
:108D2C00FA60BA6A02EB41023A610BF00202BA60D5
:108D3C003A69B96A8A4258D162781BF0020F18BF9F
:108D4C0000217A6208BF4FEA5801B2181BF0010FDC
:108D5C00D2B240F09F801BF0040F14BF404600209D
:108D6C00BB616270A070E17020463A6A7969FB6A57
:108D7C009847051EFFF614AFBB69414623707B6A0A
:108D8C003A6A6370FB6984F802A0E37007F148004B
:108D9C00FB6A9847B0F10008C0F2BA807B69A9EB76
:108DAC000A01C91AFB683A6AC91AD7E90A03984733
:108DBC000028C0F2AF804FF0000BA84408EB000570
:108DCC0007F1380AB34571D300213A6A0846FB6AA9
:108DDC009847E5E656464FF0000807F1380092E751
:108DEC005646D04696E7B04694E7BA6A12F8021B8C
:108DFC0012F8015CBA6254F82500274A904202D35B
:108E0C00264A90421ED3BA6932B1786A7B6004F06C
:108E1C0086FF7B6800288BD1BA6802BB08F1280258
:108E2C0007F1300C08F10100944407F1580208F1E5
:108E3C00020852FA80F00CF8101C5FFA88F800F85F
:108E4C00105C75E7BA693AB1786A7B6004F067FF29
:108E5C007B6800287FF46CAF1BF0010F09D006F182
:108E6C00280207F13000711C161806F8205CCEB2EF
:108E7C005EE71BF0040F3FF45BAF08F1280207F12B
:108E8C00300008F1010102EB000808F8105C5FFAF1
:108E9C0081F84DE7002063E724F404001C0B050067
:108EAC000901050004000001F8FD04001BF80A305C
:108EBC0054F8239087F83730D7F884302BB3D7F891
:108ECC0088309B4521D2D7F8843033F81B800121A0
:108EDC003A6AFB6A07F13700984700281ADB054409
:108EEC00B8F1000F06D14846FFF7DCFA00F1010893
:108EFC001FFA88F8414648463A6AFB6A98470028A8
:108F0C0008DB05440BF1010B5CE74FF00008DEE7D2
:108F1C00454645E6054643E6014B1860704700BFE1
:108F2C009030012080B505460E461746984604F051
:108F3C0019F8034606F066FA0446DFF81890424624
:108F4C0049F8003039463046A84754F8090001F07A
:108F5C00D9F900BF080000002DE9F047058B044645
:108F6C002807904611D4022905F0070540F0CC8063
:108F7C00204605F074F978B10138218B042811D8FA
:108F8C00DFE800F0C2106D85950001290CBF45F09B
:108F9C00100545F02005258388F31188BFF36F8FEA
:108FAC00BDE8F08701F0070AAA4500F0A58000276C
:108FBC00B9463E46A368002B00F0BC8041F0080186
:108FCC00218388F31188BFF36F8FA168002900F00B
:108FDC00BA800D68002900F0B68033465246204610
:108FEC00D1F80480C047002D76D02B6829461D4649
:108FFC00F0E701F007035A1F012A1BD8002221F0C9
:10900C000701062B276889B2C4E9002209D13B4627
:10901C0003E0628B013262831B68002BF9D141F0B3
:10902C0002012046218305F01AF900287AD041F07C
:10903C00200176E0042B0AD121F0070189B22046E9
:10904C00218305F00CF910B141F020012183218B13
:10905C0001F0070AAA454FD00027B946AAE72369B1
:10906C0021F0070141F00601062DD3F80090218371
:10907C002DD1B9F1000F3FD041F00801218388F3C5
:10908C001188BFF36F8F20463949C84729E021F07A
:10909C000701236941F0040189B2042DD3F804902F
:1090AC002183E6D000274FF0040A3E4682E721F0E8
:1090BC000701236941F0050189B2052DD3F8089009
:1090CC002183D6D000274FF0050A3E4672E70027D1
:1090DC004FF0060A3E466DE72B4687E7B9F1000FC5
:1090EC00D1D1EFF31188202383F31288BFF36F8F54
:1090FC00238B23F008032383258BEA062ED525F03A
:10910C001003238305F007056669218B002EBFF63B
:10911C0070AF00232768C4E9003321F0070141F048
:10912C0001012183218B4FF0000901F0070AAA45A8
:10913C007FF440AF002F9CD041F00801218388F3CD
:10914C001188BFF36F8F002FC8D03D683946334666
:10915C005246204605F0AFF82F46F4E7AB067FF5F4
:10916C001BAF25F02003238305F0070500E700BFA4
:10917C00EFE204002DE9F047044607464FF00109E1
:10918C00DFF8508014B93846BDE8F08794FAA4F59E
:10919C00B5FA85F509FA05F32E0108EB05156FEA0A
:1091AC00030A24EA03042B7B002BEBD058F806307F
:1091BC001B694BB94644736804222846196807EAB0
:1091CC000A0705F054F9DDE7284698470028D9D15D
:1091DC00F0E700BF40FE040030B5002289B00F4913
:1091EC000F4806F058F8002200230024CDE906238E
:1091FC000E230C4DCDE903344FF440722846CDE9D3
:10920C000144094B0949009403F0BAFB084928466C
:10921C0003F03EFB204609B030BD00BF4192040074
:10922C0078370120A832012059950400183C012000
:10923C00BD010500014803F0D1BA00BF94320120F2
:10924C002DE9F047804621480F4605F0F4F8064614
:10925C00002833D000252846BDE8F087237B83B156
:10926C002368DB680BB120469847636883F8069047
:10927C0023681B69D3B9636804222046196805F07A
:10928C00F6F8013610345445E8D3B8F1000FE2D0AB
:10929C00002DDFD02846FFF76DFF0546002FF7D0D5
:1092AC00002140F2391003F00BFEF1E720469847FD
:1092BC000028E0D009FA06F31D43E2E705464FF01B
:1092CC000109034CDFF80CA0DDE700BF603A012078
:1092DC0040FE040050FE0400014B53F82000704780
:1092EC00ECFE040008B5034608462BB1044A136093
:1092FC0000F070FC002008BD6FF01500FBE700BF0C
:10930C009430012010B5044C237813B9034803F0B2
:10931C0065FA0123237010BD0C3C0120943201200E
:10932C0010B50446094805F086F83CB1084BD3E863
:10933C00EF1F0139C3E8E21F002AF8D1054805F0F8
:10934C00B6FFBDE81040044803F048BA583A012073
:10935C005C3A01207837012094320120002001462C
:10936C00034BD3E8EF0FC3E8E21F002AF9D1704793
:10937C00583A012070B5FFF7F1FF0546074C084E2F
:10938C00B44200D370BD63685B792BB123685B6812
:10939C0013B12946204698471034F1E740FE0400EB
:1093AC0050FE040010B5044C0449204604F0F0FDB6
:1093BC00034B1C6010BD00BFD0310120D8FE04004F
:1093CC00503A012000230D4A10B513700C4A0D4978
:1093DC0013600D4A0D481360FFF784FFFFF7E2FF9F
:1093EC000B4B0C4918468B4200D310BD1A1A5C6803
:1093FC001211013222711033F5E700BF0D3C012030
:10940C00583A012040420F005C3A01203FE404002E
:10941C0040FE040050FE04000146002200230148D7
:10942C0004F0D7BDD0310120014804F070BE00BF5C
:10943C00D0310120024B0146186804F0BCBE00BFBD
:10944C00503A0120014804F0F1BE00BFD031012098
:10945C0070B5274B1878002849D0FFF7E5FF054673
:10946C00002841D1234B244C1B68002B19DD05F03F
:10947C0010FF4FF47A75A0FB050647F61222002365
:10948C0005FB0161FEF7F4FFD4E90032C01A40F28B
:10949C00E93361EB0201984271F1000101D3FFF74E
:1094AC0069FFD4E9003213F57A7342F10002C4E982
:1094BC000032BDE87040FFF7C5BF63685B7923B12C
:1094CC002368294620461B6898471034B442F4D3CD
:1094DC002846FFF7AFFF094BD3E8EF1F0139C3E86C
:1094EC00E21F002ABED0F7E7054C064EEEE770BD32
:1094FC000C3C0120583A0120703701205C3A0120C5
:10950C0040FE040050FE040070B50D4D297861B981
:10951C000120FFF795FE0B4C0B4EB44206D3FFF720
:10952C0097FF0028FBD101232B7070BD63685B791A
:10953C001BB1236820469B6898471034EDE700BFA9
:10954C000D3C012040FE040050FE040000212DE9DA
:10955C00F0470846FFF774FE044658B340F21B6808
:10956C004FF0000905F04EFF1B4B1C4A1B581360B3
:10957C0033B11B4B1B68092B02DD1A4803F02EF983
:10958C000025194FDFF85CA044B12046FFF7F2FD2F
:10959C00044618B94FF0FF384FF0FF39FFF758FF6A
:1095AC00064628B9B5B942464B46504603F04AF92F
:1095BC003546E9E74FF0FF384FF0FF39D2E72B681B
:1095CC009B691BB100222846114698471035BD42B5
:1095DC00F5D3E8E7054DFAE708000000543A0120FE
:1095EC005C3A01209432012050FE040040FE04003D
:1095FC0013B5184804F01FFF174B1B7873B1EFF32A
:10960C001184202383F31288BFF36F8FFFF720FFA1
:10961C0084F31188BFF36F8F02B010BD0F4B1B6822
:10962C00002BF9D050B9002200230D48CDE90023BE
:10963C0047F61222002303F0A1FFEDE70928EBD136
:10964C00074805F034FE074802B0BDE8104003F0AF
:10965C00C5B800BF5C3A01200D3C0120543A0120F2
:10966C00783701209432012010B5064B04461B6854
:10967C0098472146A060044804F02AFDBDE810403C
:10968C00FFF7B6BF94300120D0310120044A054BBE
:10969C009B1AB1EBD30F34BF52F831000020704746
:1096AC00F8FD040040FE04002DE9F04F8FB0C1F32B
:1096BC004A2804AF0D469146B8607B600C0DB8F19A
:1096CC00000F63D000264FF0040B4FF00A0A07F18D
:1096DC001403C7F80C80C7E907667E620193CDF8C6
:1096EC0008B0CDF800A007F11C0332464846F968D3
:1096FC00FFF72CFAB0F5006F03461CD36C468AB00A
:10970C00D9F8041004AB26481A46C3E9050140F207
:10971C00FF71D9614FF400711984224B42F8103F4C
:10972C004FF4125133462048FFF7BEFFA5462C37A5
:10973C00BD46BDE8F08FC0F30A0804F117001844C9
:10974C0020F0070080083B60FFF766FE68F35325A6
:10975C00044690B13B6800F11001C7E9083607F1E7
:10976C001403F961CDE900A3CDF808B048460F4ABF
:10977C00F96807F11C03FFF7E9F968F353252A464A
:10978C0020467B68B96804F092FED0E704F117001C
:10979C0020F007008008FFF73FFE0446EDE700BF0E
:1097AC00D20105000400000108FE04008DE4040051
:1097BC002DE9F04F87B00446DDE9105ADDE9127946
:1097CC00934698460391BFB13B4652461021002068
:1097DC00CDF80090CDF81490FEF7E6FFB0F5006FD1
:1097EC0006460AD340F2FF730221174A174807B006
:1097FC00BDE8F04F04F0B4BE3E4605F1170030440E
:10980C0020F007008008FFF707FE04F007040BF0B8
:10981C00070BE40044EA8B1444EA462444EA05545A
:10982C00054640B13FB13B4652463146CDF800901B
:10983C001030FEF7B9FF434622462846039907B07D
:10984C00BDE8F04F04F033BE1102050008FE040021
:10985C00406820B1034BC01A40F3CF0070474FF063
:10986C00FF307047F8FD04000EB403B503AB53F89A
:10987C00042B01460448019301F070F802B05DF826
:10988C0004EB03B0704700BFB7E50400CA0605D46B
:10989C008B064CBF02490349FFF7E6BF704700BF78
:1098AC004A020500490205002DE9F04F89B09B469C
:1098BC00149B9DF84CA00693159B04460593169B90
:1098CC000D469046179E0493BAF1000F00F09D8050
:1098DC0006F48073079304F0C8FD06F002090246F3
:1098EC0000283ED020469149FFF7BEFF0746B9F14C
:1098FC00000F08D016F0440F35D12A4620468C496B
:10990C00FFF7B2FF074406F0010353B1894B204621
:10991C0053F82A20884B8949002A08BF1A46FFF7BA
:10992C00A3FF06F48073002B49D006F00803002B2C
:10993C0063D1B8F1000F66D0424620468049FFF74C
:10994C0093FF0546069B3D44002B6DD1049B002BD9
:10995C0073D1F30700F1E48031462046FFF796FF00
:10996C00D8E00746C3E7774B18680028CAD0764B77
:10997C004FF47A791B684FF03C0CB5FBF3F5B5FB53
:10998C00F0F14FF4616300FB115509FB05F5B1FBD8
:10999C00F3F2B5FBF0FE03FB121100FB1E55B1FBFD
:1099AC00FCF309FB05F5B5FBF0F50CFB1311204698
:1099BC000091CDE901E56549FFF756FFA2E706F0F6
:1099CC000803EBB1624B204653F82A206149FFF79C
:1099DC004BFF0546B8F1000F05D0424620465849CA
:1099EC00FFF742FF0544BBF1000FABD05A462046AF
:1099FC005949FFF739FF0544A4E74FF0000BE1E7A5
:109A0C0006F00805E6E745469CE7BBF1010F069B0F
:109A1C0006D1002B64D1049B002B7BD000250CE0DD
:109A2C00002BF8D04D485CE04D48069B22464D4932
:109A3C0004F044F9049B002B68D0DFF82C81DFF88C
:109A4C002C91049F3146102F204628BF10274FF031
:109A5C00000BFFF71BFF5D4545DC059B4946204687
:109A6C001A78FFF701FF4FF0010B1BF0070F03D122
:109A7C0041462046FFF7F8FE5F453BD9059B49461A
:109A8C00204613F80B20FFF7EFFE0BF1010BBBF197
:109A9C00100FEAD14FF0000B20463549FFF7E4FEDA
:109AAC005A46059B20469A5CA2F120015F2928BFEB
:109ABC002E223049FFF7D8FE0BF1010BBBF1100F32
:109ACC001DD01BF0070F03D141462046FFF7CCFEFB
:109ADC005F455A46E5D841462046FFF7C5FEEBE701
:109AEC001F485546A1E741462046FFF7BDFE0BF146
:109AFC00010BB0E720462049FFF7B6FEC5E7059BF2
:109B0C003B440593049BDB1B04939AD1BAF1000FE1
:109B1C007FF41FAF204609B0BDE8F04F04F038BD0C
:109B2C002046054A0549FFF79FFE15E7510205003F
:109B3C0055020500FCFE04004C0205007A020500EB
:109B4C007D020500683A0120643A01205E0205009E
:109B5C0010FF04008102050087020500E5E5040002
:109B6C00B7E5040069A90400940205008C02050005
:109B7C0096020500980205009202050042F20F734E
:109B8C0073B58B4228BF0B46056804460521684611
:109B9C000D4A03F02BFD0646636828460B225B68D2
:109BAC000A4904F0E7FC63683246694628465B685C
:109BBC0004F0E0FC63681B2228465B68044904F04F
:109BCC00D9FC02B070BD00BF0B040500B702050044
:109BDC009B02050000210123064A904206D8064A42
:109BEC0001B901231360054B18607047012140082F
:109BFC005B00F2E740420F00643A0120683A012012
:109C0C00F8B50D460446064F4618B44201D1284615
:109C1C00F8BD14F8011BBB6801485B689847F4E772
:109C2C0014F50400014B03600020704758FF04003A
:109C3C0008B5044804F09AF8BDE80840024804F05E
:109C4C0095B800BFFD0205003203050008B50348B6
:109C5C00034A0021121A04F03BFD08BDA832012072
:109C6C00143C0120074808B5074A0849121A04F0A9
:109C7C0031FDBDE808400648064A0749121A04F0AF
:109C8C0029BD00BF00300120A43201201C0B0500AF
:109C9C0000300120003001201C0B05002DE9F0479D
:109CAC0006460C4600AF002936D0D1E90012E94631
:109CBC008AB06D46A3684FF0050AA8461F48C5E94F
:109CCC000723C5E9050148F810AF002342464FF4BD
:109CDC0021511B48FFF7E8FCD4E90312CD46636918
:109CEC00AD461848C5E90723C5E90501C5F810A01C
:109CFC00002342464FF421511148FFF7D5FCCD46C5
:109D0C00E3690121104A0E4804F02AFCA3690121E1
:109D1C000E4A0B4804F024FC012E07D1EFF3058307
:109D2C000B4A31460648103B04F01AFC21463046DB
:109D3C0002F000FBBD46BDE8F08700BF60030500E4
:109D4C0028FE04008F030500BE030500CD030500AB
:109D5C00FB03050030BFFFF7FDBF00BF2DE9F0414D
:109D6C0005460B4EDFF82C80324606EB0807CC1B61
:109D7C002046094905F0B7FAA01942460021083CD3
:109D8C0005F0BEFAC5F8B44007F10800BDE8F08153
:109D9C00000000000400000094FE0400054B5A690A
:109DAC009B689A421FBF044A536843F08053536028
:109DBC00704700BFDC3B012000ED00E070B52A4C81
:109DCC0006460D4629482A4904F091FCA36ADB0695
:109DDC0047D52648274904F08AFC1120A36A1C07A2
:109DEC0004D52248244904F082FC12201E4CA36A9C
:109DFC00990712D521491D4804F079FC636BA26ABE
:109E0C00120609D501211E4A184804F0A9FB1EB1FF
:109E1C00A36A23F08003A3621320134CA36ADE070A
:109E2C0004D51248174904F062FC1420A36A9C065E
:109E3C0004D50E48144904F05AFC15200A4B9A6AB2
:109E4C00D10658BF9A6A9A6A920642BF5A6A22F49D
:109E5C0000525A629A6A42F0FF029A6200232B70F7
:109E6C0070BD1020BAE700BF00ED00E028FE040032
:109E7C000E04050024040500570405006A040500BF
:109E8C008204050098040500B704050010B5244CA5
:109E9C002449254804F02BFCA36A99013ED522489D
:109EAC00224904F024FC1E20A36ADA0104D51E48C2
:109EBC001F4904F01CFC1F20194CA36ADB0204D5BB
:109ECC0019481C4904F013FC0220A36A1C0304D596
:109EDC001548194904F00BFC2120114CA36A5903B5
:109EEC0004D51148154904F002FC2220A36A9A03F8
:109EFC0004D50D48124904F0FAFB2320084CA36A40
:109F0C00DB0304D508480F4904F0F1FB2420A36AB5
:109F1C006FEA03436FEA1343A36210BD1D20C3E72E
:109F2C0000ED00E0E604050028FE0400FE04050038
:109F3C00110505002B0505005505050073050500E9
:109F4C0098050500B205050070B5294C06460D466E
:109F5C002848294904F0CBFBA36AD9043CD52548F1
:109F6C00264904F0C4FB1720A36A1A0504D521481E
:109F7C00234904F0BCFB18201D4CA36A9B0512D589
:109F8C001C48204904F0B3FBA36BA26A100409D54A
:109F9C0001211D4A174804F0E3FA1EB1A36A23F409
:109FAC000043A3621920124CA36A590504D5114829
:109FBC00164904F09CFB1A20A36ADA050ED50D484D
:109FCC00134904F094FB1B20094A936A43F47F4322
:109FDC00936200232B7070BD1620C5E7A36A9B0407
:109FEC00F2D504480B4904F082FB1C20ECE700BFBF
:109FFC0000ED00E028FE0400DD050500F30505007A
:10A00C0057040500040605001D0605003206050070
:10A01C004D060500B70405002DE9F0478AB0694BE1
:10A02C000446D3F804A089461646002500AFCAF3AF
:10A03C00080885F31188BFF36F8F02F07F43B3F1EB
:10A04C007F4F1ED1D3071CD4500603D4110708D45C
:10A05C00012508E05C495D4804F049FB16F0040654
:10A06C0000D04C4600250023FB71A8F10303092BFB
:10A07C0000F28680DFE803F0077C7F788484848498
:10A08C0084822C46EFE75249504804F030FB002301
:10A09C004C4EFB71F36A9A0705D54E494B4804F0B8
:10A0AC0026FB002329E0F36A002B01DA4A49F5E785
:10A0BC00F36A5B00F5D54949444804F018FB736911
:10A0CC00A26943F480737361BFF34F8FBFF36F8F3B
:10A0DC00736932F8022C23F480737361BFF34F8FD2
:10A0EC00BFF36F8F4DF602739A4228D1236801217A
:10A0FC003B4A364804F034FA2368FA79DAB907F1A6
:10A10C00080604F1200C324620686168083403C24A
:10A11C0064451646F7D17A6A002D4ED0C2F3080179
:10A12C0021B96FEA52226FEA42227A62184607F18D
:10A13C000801FFF7B3FD2837BD46BDE8F087B36AC9
:10A14C00DBB223B10120F91DFFF738FE0EE0B36A34
:10A15C0013F47F4F04D00120F91DFFF7F5FE05E045
:10A16C00B36AB3F5803F9CD3FFF790FE0346C4E778
:10A17C000020F91DE8E70020F91DEEE719498DE7ED
:10A18C00194A6E461AF4F87F8AB0184B18BF13465A
:10A19C006A461749C2E90513A8F11003D3614FF4BD
:10A1AC0000731384134B42F8103F00234FF41151EA
:10A1BC000648FFF779FAB54673E722F4FF7222F0EE
:10A1CC000102B2E700ED00E09306050028FE040052
:10A1DC00B6060500CD060500EE060500FC060500DA
:10A1EC001B070500370705007A0605006506050004
:10A1FC005B07050004000001064B5A6942F010028F
:10A20C005A615A6942F480625A615A6922F0080212
:10A21C005A61704700ED00E0EFF30880EFF309811D
:10A22C0001B57246FFF7F8FE01BD00BF002080F3B8
:10A23C001488BFF36F8F002080F30A8880F30B889B
:10A24C00104880F3088800200F49087001F0CEFAFE
:10A25C0000200E490860BFF34F8F00F02DF820202E
:10A26C0080F311880A484FF40061401880F3098884
:10A27C00EFF314800221084380F31488BFF36F8F2F
:10A28C0000F0E0F8584C0120123C012094ED00E065
:10A29C00183F0120002318460649D1F89020C2F33C
:10A2AC000722934200DB7047C1F89830C1F8A00038
:10A2BC000133F6E700ED00E010B572B6002484F32C
:10A2CC001388FFF7E7FF23464FF0FF300C4A03F1EA
:10A2DC0020010133102B42F82100F8D100234FF05C
:10A2EC00FF30074A03F160010133102B42F82100C3
:10A2FC00F8D162B6BFF34F8FBFF36F8F10BD00BFA5
:10A30C0000E100E0084B9B6883420BD1EFF305831F
:10A31C0043B1064B5A6842F080525A605A6A22F492
:10A32C0000425A6202F024BEDC3B012000ED00E04A
:10A33C0018498A6882F8C1E04FF030001044EFF3FE
:10A34C00098C80E8F01F202080F31288BFF36F8FF8
:10A35C00114F4FF000664A698A603E60D2F8B40033
:10A36C000E4C206092F9C1E0D2F8B8000023C2F87C
:10A37C00B83080F3118802F1300090E8F01F8CF3B4
:10A38C00098802F1000004B504F0B9F9BDE80440F5
:10A39C0070470000DC3B012004ED00E0903A012006
:10A3AC001EF0040F0CBFEFF30880EFF309808169F6
:10A3BC0011F8021C0229FFD001B5724604F08CF989
:10A3CC0001BD00BF00B2002807DB01234109034A8D
:10A3DC0000F01F00834042F82130704700E100E09C
:10A3EC00054B420953F82220012300F01F0003FA09
:10A3FC0000F01040704700BF00E100E000B2002800
:10A40C0001F10101ACBF00F16040064B4FEA411174
:10A41C00C9B2ABBF00F5614000F00F0080F800132B
:10A42C001954704714ED00E0044B054A23F07F03E8
:10A43C009360BFF34F8FBFF36F8F704700800400A2
:10A44C0000ED00E008B5FFF7EFFF074AD2F88830BF
:10A45C0023F47003C2F88830FFF7F8FBFFF702FC17
:10A46C0000F04CF802F08AF800ED00E042F8203CD5
:10A47C00009B0D4942F81C3C019B21F0010142F864
:10A48C00183C029B42F8081C42F8143C4FF08073B5
:10A49C0042F8043C0023C0F8B8304FF43C43203A57
:10A4AC000265C0F8C0307047318F040000B50E4B08
:10A4BC0015469860D0F8B4200C4B0E461A60D0F8B4
:10A4CC00A43083F30B882C4686F309880020044BB8
:10A4DC0098472046002100220023024C2047000010
:10A4EC001BE70400318F0400DC3B0120903A012073
:10A4FC001022014B1A61704700ED00E00023202070
:10A50C0040F20F1210B5044CE1180133934281F85C
:10A51C000003F9D110BD00BF00E100E008B5EFF376
:10A52C000583064A103B02EBC30152F8330049681D
:10A53C008847BDE80840FFF731BC00BF34F5040084
:10A54C001FB5094C094A23460121094800F012F9AC
:10A55C0000230393074B0121E41A01A801930294F1
:10A56C0000F012F904B010BD00F002200030012000
:10A57C0058FF0400A832012010B50C7A0B6804F0C7
:10A58C001F0223F01F031A43CB68640923F01F0337
:10A59C00054943EA440343F00103C1F89800C1F8AC
:10A5AC009C20C1F8A03010BD00ED00E010B50A4BA6
:10A5BC00D3F89030C3F30723013B984208D901210B
:10A5CC000346064A064803F0CBFF6FF0150010BD9A
:10A5DC00FFF7D2FFFBE700BF00ED00E072070500BC
:10A5EC0020FE04002DE9F04F8946144606464FF034
:10A5FC000008514D85B0C84527DAD6F804A0BAF149
:10A60C00000F44D0BAF11F0F17D91AF01F0F14D135
:10A61C00D6F800B01BF01F0F0FD1584604F09AF873
:10A62C0007460AEB0B00013804F094F8874210D06F
:10A63C006FF01507414A3B4601E04346404A012171
:10A64C00404803F08DFF6FF01504204605B0BDE8BF
:10A65C00F08F17F1160FEDD0BC42EBDDC5F89870FA
:10A66C00D5F89C10C5F89870D5F8A03021F01F01D2
:10A67C0043F01F0BD6E900321A44994202F1FF3A1B
:10A68C001DD1D34507D13146F8B204F06CF808F16E
:10A69C0001080C36AFE73146C5F89870D5F89C30F8
:10A6AC0022F01F0203F01F031343C5F89C30E0B2E5
:10A6BC0004F059F810F1160FC5D0441CE7E7C5F8A3
:10A6CC009870D5F8A020013B23F01F0302F01F0265
:10A6DC001343D3453146E0B2C5F8A030E8D004F0BE
:10A6EC0042F810F1160FAED0C5F89870D5F89C2032
:10A6FC009DF808300BF1FF3B62F304038DF8083032
:10A70C00D5F8A0309DF808205B0863F347128DF84C
:10A71C000820D6E900321344009323F01F035B4456
:10A72C00A3EB0A03013023F01F036946C0B2039365
:10A73C00FFF73CFFBEE700BF00ED00E0BB070500E4
:10A74C009807050020FE04000522044BC3F8942052
:10A75C00BFF34F8FBFF36F8F704700BF00ED00E06A
:10A76C00BFF35F8F0022024BC3F89420704700BFE9
:10A77C0000ED00E010B5034C2278FFF733FF20709A
:10A78C0010BD00BF0F3C01202DE9F74F294D8A4623
:10A79C0006464FF00008AB46274FD0451BDAD6F8DB
:10A7AC000490B9F1000F3FD031680846019103F0D5
:10A7BC00D1FF0199044609EB0100013803F0CAFFEF
:10A7CC0084424FF014021D4B08D002FB08F36FF0CB
:10A7DC0015024BF8032003B0BDE8F08F14F1160FEF
:10A7EC002C60F8D01978A142F5DD02FB08B0C7F84F
:10A7FC009840C7F89840D7F89C4000F10801007BBE
:10A80C0064F304000871D7F8A0000C79400860F3D9
:10A81C0047140C71D7F89C1021F01F016960D7F810
:10A82C00A01021F01F01296108F1010814350C3624
:10A83C00B3E700BF943A012000ED00E00F3C01208B
:10A84C00F0B54149414CD1F890302568C3F307234A
:10A85C009D4287B075D80020FFF782FF3C4BC1F8B2
:10A86C00C030854216D13B4C01A82570FFF7DAF9B0
:10A87C0000250646384FAE4213D1002023783249CA
:10A88C00D1F89020C2F30722934254DBFFF75CFF10
:10A89C0000202FE0616801EB0011FFF76DFE013025
:10A8AC00DFE70199280101EB0513DA683A40B2F5AC
:10A8BC00001F21D0B2F5800F2BD0B2F5801F38D1FC
:10A8CC005A689B680958013B22F01F000344012081
:10A8DC00844623F01F0340EA4C10CDE902218DF889
:10A8EC00100002A920780593FFF760FE00281DDAFE
:10A8FC006FF0150007B0F0BD5A689B680958013B12
:10A90C0022F01F0003444FF0020C012023F01F0320
:10A91C00E1E75A689B680958013B22F01F00034489
:10A92C004FF0000C062023F01F03D4E723780133EB
:10A93C00237001359FE7C1F89830C1F8A0000133AE
:10A94C009EE74FF0FF30D5E700ED00E064FF040018
:10A95C00AAFF44000F3C01200000F0FFF0B587B0C7
:10A96C0007460E4614460021102268461D4604F088
:10A97C00C7FC02238DF80230054B2A462146684657
:10A98C00CDE90476019302F05DFE07B0F0BD00BF87
:10A99C00A5E7040008B5024B1B689847002008BDCA
:10A9AC00A83A0120034B044A1860937843F0020341
:10A9BC0093707047A83A0120A030012008B50649D1
:10A9CC00064821F00701C1F1005202F53C3203F0B8
:10A9DC001DF9002008BD00BF5F4C0120AC3A0120DE
:10A9EC00024B034A00201A60704700BFAC310120B3
:10A9FC000020A10748B1054B054A1B68B3FBF2F3D5
:10AA0C005843044B43F0010318477047AC31012005
:10AA1C0040420F00C0FE0400084B70B5C31A0D462F
:10AA2C0007499B10044659434022064803F0C8FED0
:10AA3C002B4601462046BDE870401847CC3A012011
:10AA4C00B76DDBB694F40400402373B50B4C009344
:10AA5C00041B0B460D460A49A41061430646094ADD
:10AA6C00094803F0D8FE011E05DA30462B4602B029
:10AA7C00BDE87040184702B070BD00BFCC3A012051
:10AA8C00B76DDBB68BE8040094F40400F8B5002233
:10AA9C000121054640F20510FFF7B0FC0F4800F00D
:10AAAC00B5FE0446B8B900F0D1FE2F690C49384602
:10AABC0003F024FC031E09DB01263E642D690849C2
:10AACC0005F11C0003F01AFC031E02DA1C4620469A
:10AADC00F8BDEE64FBE76FF00404F8E7ABE80400A4
:10AAEC008CFF04001FB500220123CDE902236B4625
:10AAFC00084ACDF800D0CDF804D003F0B9FE0028F8
:10AB0C0005DB43F609520023684601F09BFE05B0B5
:10AB1C005DF804FB9DE8040010B5EFF311842023CD
:10AB2C0083F31288BFF36F8F074A136823F0020177
:10AB3C00DB07116002D4012004F032F884F3118891
:10AB4C00BFF36F8F10BD00BF1C3B01200C22104BBC
:10AB5C00014602FB0033002030B4D3E90E52986357
:10AB6C00EFF31180202484F31288BFF36F8F1C6CD9
:10AB7C0004F0C00444F002041C6480F31188BFF399
:10AB8C006F8F1DB12B4630BC0248184730BC704744
:10AB9C00CC3A012094F4040010B4EFF3118220237A
:10ABAC0083F31288BFF36F8F1648016841F00204DB
:10ABBC000460C80707D482F31188BFF36F8F01209C
:10ABCC0010BC03F0E5BF1049D1F80C14C903F2D541
:10ABDC00EFF3118083F31288BFF36F8F0B490B6C6B
:10ABEC0003F0C00343F002030B6480F31188BFF33E
:10ABFC006F8F82F31188BFF36F8F002010BCFFF7AB
:10AC0C00A5BF00BF1C3B012000E01040CC3A012046
:10AC1C002DE9F041012207463449D1E8EF3FC1E864
:10AC2C00E02F0028F9D133B9314932484B60CB6061
:10AC3C008A6003F076FB7B1E012B28D8012F06D1EE
:10AC4C002D4BD3F8503403F00303012B1FD004F029
:10AC5C003EFA0546E8B9294B1B78D3B104220646C7
:10AC6C00254BC3F80823244CDFF89480D4F84C24EB
:10AC7C00D4F84C34D20315D503F00303012B01D0C7
:10AC8C00012F0FD165B386F31188BFF36F8FBDE829
:10AC9C00F081EFF31186202383F31288BFF36F8FBB
:10ACAC000125E0E7BDB1304603F045FDD4F8403452
:10ACBC0013F0FF03DAD1D4F80821002AD6D0C4F857
:10ACCC000831D4F8083120220123C4F84034C8F8E4
:10ACDC00A0212361CAE70021202002F0F1F8E5E76A
:10ACEC000422054BC3F80423D1E700BFC83A012066
:10ACFC00B83A0120E83A012000E01040123C012053
:10AD0C0000E100E008B5074804F0AFF938B1064897
:10AD1C00FFF748FE0448FEF7FFF8002008BD6FF06F
:10AD2C001200FBE714F5040039AD04000A2838B50D
:10AD3C000446074D04D1AB680D2128465B68984743
:10AD4C00AB6803485B68E1B29847204638BD00BF4A
:10AD5C0014F504002DE9F04340F206354768D0069F
:10AD6C0048BF4FF0030C3B7C02EA050558BFC2F309
:10AD7C00401C87B001F01F06B5F5837F144646EAE8
:10AD8C0043168DF803C046D00DD8062D45D005D8F6
:10AD9C00A5B1022D12D06FF0150039E0B5F5807F0A
:10ADAC00F9D101250AE040F20222954237D0B5F5DF
:10ADBC00407F36D0B5F5007FEDD104250123220369
:10ADCC0003FA01F12FD57B685960B86880BB5F2E00
:10ADDC0006F01F034FEA561173D83C4A52F8212053
:10ADEC0084F4803102EB8302D2F88030C1F300414D
:10ADFC00C4F3404423F4706344EA410423F00F038A
:10AE0C001C4344EA8C0444EA0524C2F88040002028
:10AE1C0007B0BDE8F0830925D0E70825CEE7062565
:10AE2C00CCE70525CAE7630344BF7B689960CCE790
:10AE3C0031460DF1020204F08DF814F4403F8046C7
:10AE4C000CD13146B86804F09EF8B8F1000FDED191
:10AE5C009DF80210B86800F085FFD8E74FF00009A4
:10AE6C0001ABCDE90199CDE90439CDF80C9031460F
:10AE7C00B86803AA03F0B2FF4845C8DB14F40033EA
:10AE8C0014D09DF8033084F48034C4F300448DF85E
:10AE9C000E308DF80C508DF80D404B463146B8688D
:10AEAC0003AA00F0B3FE0028CFDAB0E7CDE90433F3
:10AEBC000DF1030303933146B86803AA03F08EFF28
:10AECC00F1E7203350F82330FFDE00BFB0FF040061
:10AEDC004209022A034670B503D0012A18D0CAB120
:10AEEC0070BD0E4E326951680029F9D0012503F06E
:10AEFC001F030C689D400029F2D08A682A4002D0BA
:10AF0C0030464B6898473CB1236821461C46F2E713
:10AF1C00034EE7E7034EE5E72346F6E7F4F40400B7
:10AF2C00D4F40400B4F4040038B54568A868C0B182
:10AF3C0004F023F80146A0B9A86800F0E1FE04462D
:10AF4C0088B902460949A86804F001F82246012193
:10AF5C00DA20FFF753FA224601214FF48670FFF7EF
:10AF6C004DFA002038BD6FF00400FBE7DDAE0400A5
:10AF7C00F0B545681646A8682A7C01F01F0487B016
:10AF8C0044EA4214002868D0B6F5001F04D12146CB
:10AF9C0004F04DF8002051E00020B6F5800F01AA16
:10AFAC000190506039D1B3F1007F14BF0523042305
:10AFBC008DF804300023CDE904230393EB680DF1E5
:10AFCC00030723FA01F111F0010139D1B6F1A07F89
:10AFDC0036D104F01F035F2C4FEA541003F1200309
:10AFEC003ED8214A52F8202052F82330DB0727D4D0
:10AFFC003A462146A86803F0ADFF163018D00297E8
:10B00C002146A86803AA03F0E9FE002816DB0122FA
:10B01C002146A86803F0B9FFBCE7B3F1C06F05D0B7
:10B02C00B3F1007F14BF01230223C1E70323BFE761
:10B03C003946A86800F0A0FE0028E0DA07B0F0BDA1
:10B04C003A462146A86803F085FF0028D8D19DF820
:10B05C000310A86800F086FED2E76FF08500EDE7DC
:10B06C0051F82330FFDE00BFB0FF0400036803F08B
:10B07C001F025F2B02604FEA53129ABF024B53F828
:10B08C0022000020704700BFF8FF04002DE9F04FAC
:10B09C001546074640F2FF19DFF868A1DFF868B1E2
:10B0AC0085B000EB8101B94203D1002005B0BDE8A9
:10B0BC00F08F3A68C2F3C323082BC2F3080400F2E2
:10B0CC009E804C4508BF4FF0FF34B2F1D05F1AF8A8
:10B0DC0003804FEA126310D2192B12D8DFE803F069
:10B0EC0014226461292F6111111111111111111107
:10B0FC0011111111111167717477382B6AD04E2B05
:10B10C0052D06FF08500D1E7C5F80446601C14D00E
:10B11C00012603A80394FFF7A9FF039B06FA03F388
:10B12C00436004E0C5F80C46621C06D0002632468B
:10B13C0013E0631CC5F800465FD10437B3E7661C07
:10B14C00C5F80446F9D0012603A80394FFF78EFF37
:10B15C000122039B02FA03F383603B68039403F41C
:10B16C000040002818BF002203A818BF0126019335
:10B17C000092FFF77BFF039C019B00EB8400D0F84F
:10B18C008040C3F3412C009A4FEA082343EA8C0316
:10B19C00134304EA0B04234343EA4603C0F880300C
:10B1AC00CBE7C5F80846BFE7C5F81046AEE7C5F8CB
:10B1BC006045621C3B68C0D0C3F30043002BC2D077
:10B1CC00A6E7C5F86445F4E7C5F86845F1E7C5F8A6
:10B1DC006C45EEE703A80394FFF748FF039B00EBD5
:10B1EC008300D0F8803023F0E04343F08043C0F874
:10B1FC008030631CA1D0012699E70026A4E76FF0EC
:10B20C00150053E73A080500F0F0FCFF2DE9F0417A
:10B21C0004460D46476803F05AFFA0B9274B1B782C
:10B22C008BB14FF02008642663681B68D3F830316B
:10B23C008BBB012003F075FC013EF5D100212020D1
:10B24C0001F03EFEEFE72021EFF311831A4681F364
:10B25C001288BFF36F8F60680068D0F8300120B996
:10B26C0083F31188BFF36F8FEEE77B6A00201D70AC
:10B27C006368796A1B68C3F83C170121C3F840174F
:10B28C00C3F83001D3F83001196582F31188BFF38C
:10B29C006F8FBDE8F081EFF311831A4688F31288A3
:10B2AC00BFF36F8F61680968D1F830110029DCD1C8
:10B2BC0083F31188BFF36F8FC0E700BF123C0120EE
:10B2CC0070B40D4CD4E90065901B63EB050140098B
:10B2DC0040EAC1604101891945EBD065C4E900150C
:10B2EC00002400250549C1E90023054BC3E90045AD
:10B2FC0070BC02F045B800BFD0370120B837012030
:10B30C00C837012008B500220121E320FFF776F8A9
:10B31C00164A0020D2F8183723F44033C2F81837F5
:10B32C0000F05CFE002820DB0120114900F0E2FE59
:10B33C0000281ADB00F02CFE0E4B20F01F00C3E996
:10B34C0000010D4B0022C3E900014FF0FF304FF01C
:10B35C00FF310A4BC3E90001094B0A49187A00F086
:10B36C0027FE67220020084B1A6008BD00200E4003
:10B37C00A8310120D0370120B0370120B837012087
:10B38C00A0310120CDB204004C3B012008B500F0E7
:10B39C00FFFD064AD2E90032C01A054B61EB0201EF
:10B3AC00C3E90001400940EAC16008BDD037012063
:10B3BC00C8370120F7B5224B0146224F187A224B91
:10B3CC00D7E90056D3E900239E4208BF954211D11C
:10B3DC00B1F1806F0ED24901012938BF0121012240
:10B3EC004D1946F10006C7E9005603B0BDE8F04020
:10B3FC0000F018BF154BDFF858C0D3E90043DCE967
:10B40C00002CA41843EB0C0C4FF0200E2246634684
:10B41C00C1FB0E23954276EB0301C7E900230DD245
:10B42C00291B66EB0C04C82974F10004B4BF01217C
:10B43C000021009100F0BEFE03B0F0BD0021F8E742
:10B44C00A0310120C0370120B8370120D0370120AE
:10B45C00C837012010B50749074803F034FB0446F0
:10B46C0028B101210346054A054803F079F8204626
:10B47C0010BD00BFDDB60400503B01205E08050086
:10B48C0028FE04002DE9F041DFF8D4810D46D8F8F0
:10B49C00704000AF072C00F008065BD0132C00F0B6
:10B4AC00A080052C40F0B980D8F854806D496E48C6
:10B4BC0003F005FB18F4805F41D06C496A4803F037
:10B4CC00FEFA172418F4006F04D06949664803F09B
:10B4DC00F6FA182418F4007F0ED06649624803F07F
:10B4EC00EEFA654B18F4004F9B6B04D00121634AB4
:10B4FC005D4803F035F8192418F4806F04D06049C6
:10B50C00594803F0DCFA1A2418F4807F19D05D49ED
:10B51C00554803F0D4FA1B24EB69002E40F09B80B5
:10B52C00C3F3080222B96FEA53236FEA4323EB619A
:10B53C0029462046FEF7B2FBBD46BDE8F081162435
:10B54C00C0E718F4005FE7D04F49474803F0B7FA5B
:10B55C001C24E1E7D8F85C4043484C4903F0AFFAAF
:10B56C00600606D5D8F868300121494A3E4802F0F9
:10B57C00F7FFE10705D547493B4803F0A0FA26241D
:10B58C00CAE7A20705D54449374803F098FA27249F
:10B59C00C2E7630705D54149334803F090FA2824E4
:10B5AC00BAE7200705D53E492F4803F088FA29242D
:10B5BC00B2E7E10605D53B492B4803F080FA2A2473
:10B5CC00AAE7A20605D53849274803F078FA2B24B8
:10B5DC00A2E723063DD53549234803F070FA2C2405
:10B5EC009AE7D8F86C8032491F4803F068FA18F0D3
:10B5FC00020F03D02F491C4803F061FA18F0010F19
:10B60C0003D02D49184803F05AFA18F0040F83D0D0
:10B61C002A49154803F053FA7EE7294A294BE84694
:10B62C008AB00F2CC8BF13466A462749103CC2E9A2
:10B63C0005134FF400731384244BD46142F8103F6C
:10B64C0000234FF411510848FEF72EF80024C5468C
:10B65C0062E7252460E723F4FF7323F0010366E718
:10B66C00503B0120DD05050028FE0400F305050014
:10B67C00570405000406050000ED00E01D0605005A
:10B68C00320605004D060500B704050098080500B4
:10B69C00B1080500C1080500D7080500F50805002C
:10B6AC00100905002D090500420905005C0905007B
:10B6BC006F09050089090500B9090500E7090500AE
:10B6CC007A060500650605005B070500040000010D
:10B6DC0000B5104B89B05A6AD86C00929A6A20F067
:10B6EC0005000192DA6A694602921A6B03925A6B50
:10B6FC0004929A6B0592DA6B06921A6C1B6D079288
:10B70C009B0748BF40F00400FFF7BCFE09B05DF892
:10B71C0004FB00BF503B01202DE9F04105460E46CD
:10B72C001746984603F0D3FC70B90E4B1B785BB1EF
:10B73C004FF0FF324FF0FF330B4800F087FF044609
:10B74C0018B16FF083050AE00124424639463046B1
:10B75C00069BA847054614B9034800F0EFFF28469E
:10B76C00BDE8F081123C012080320120002300B59D
:10B77C0089B0CDE9063303AB0493042303900593FE
:10B78C00A9B10B6806934B6807930223111E18BFCF
:10B79C0001210848CDE9002140F2F53104AA00F05E
:10B7AC000BF80028B8BF012009B05DF804FB012399
:10B7BC00ECE700BF0501004010B4B1F5004F029C4E
:10B7CC000ED2042B0CD8042C0AD8240444EA0364AB
:10B7DC00134644EA0102014610BC0348FFF79CBF24
:10B7EC006FF0800010BC7047A1040000034AD2F82F
:10B7FC008C3043F44063C2F88C30704700ED00E0AD
:10B80C00014B1B68184700BFC43B012010B50C4C02
:10B81C00237993B9012323710A4B0028206018BFA8
:10B82C00184600F0F3F850B923680748002B08BFFE
:10B83C001846BDE8104000F035B86FF0770010BD29
:10B84C00C43B01200DB8040099EB040008B5074B6C
:10B85C001B6853B140F20510FEF7C2FD28B9BDE8D4
:10B86C00084040F20510FEF7ADBD08BDC43B0120F9
:10B87C0038B504230A4C42F21075C4F8083301237E
:10B88C0063610023C4F80831D4F80831D4F84C347F
:10B89C00DB0304D5012003F044F9013DF6D138BD9A
:10B8AC0000E01040064A13793BB901211060117178
:10B8BC00044A1846C2F8403470476FF0770070475E
:10B8CC00CC3B012000E0104010B51D4B1D4CD3F8B3
:10B8DC004C14D3F84C2411F4803F18D002F003021E
:10B8EC00012A03D00AB1FFF7C3FF0022144BC3F89F
:10B8FC0040240022C3F80821D3F8082101221A6140
:10B90C00226872B9D3F80821002AFBD011E0D3F8D1
:10B91C004824D107E9D5D3F850249207E3D4226800
:10B92C001AB10422C3F8042310BDD3F80821002A4D
:10B93C00FBD00022C3F80821D3F80831F4E700BF8C
:10B94C0000E01040CC3B0120F8B50125184C194EF5
:10B95C00D4F80C3303F00C0303B9F8BDB3FA83F33A
:10B96C000027C3F11F039A0002F5807292B202F114
:10B97C00804202F58712176005FA03F1022B126858
:10B98C00D8B2C4F8081310D1D4F84C34D4F84C34D1
:10B99C009B070AD10423C4F84054C4F8043325612E
:10B9AC00D4F80C3303F00C03D6E733689847F7E769
:10B9BC0000E01040CC3B0120712238B5104B002127
:10B9CC00C3F80823012242F210745A60C3F8001124
:10B9DC00D3F800110B490A4DD1F840131C2908BFAC
:10B9EC00DA60D5F80C3413F4803305D0012003F061
:10B9FC0098F8013CF5D138BD034A5371FBE700BF01
:10BA0C0000E0104000C0FF00D43B0120054B024673
:10BA1C00187918B91A6001221A7170476FF0770003
:10BA2C00704700BFD43B01200022164BC3F81021F5
:10BA3C00D3F81011C3F81821D3F81811C3F8142136
:10BA4C00D3F814111049D1F840131C2904BF01215B
:10BA5C009960C3F80021D3F8002101221A600B4A27
:10BA6C00126852B9074BD3F80021002AFBD00022F0
:10BA7C00C3F80021D3F8003170477122C3F80423B6
:10BA8C00704700BF00E0104000C0FF00D43B012015
:10BA9C00F8B50126194C1A4DD4F80C3303F0710388
:10BAAC0003B9F8BDB3FA83F30021C3F11F039A0065
:10BABC0002F5807292B202F1804202F58712116097
:10BACC0006FA03F7042B1268D8B2C4F8087308D02E
:10BADC00062B10D02B689847D4F80C3303F0710365
:10BAEC00DEE702236B71C4F81411D4F8143120234F
:10BAFC00C4F80433EEE76971ECE700BF00E01040D6
:10BB0C00D43B0120036803F01F025F2B02604FEA55
:10BB1C0053129ABF024B53F822000020704700BF0B
:10BB2C006C000500034A4309D35C00F01F00184465
:10BB3C00C0B270471B0A0500F0B50646002487B05A
:10BB4C00114F019117F8012B06AB03EBD20313F83D
:10BB5C00143C02F00702D34013F0010306D1013468
:10BB6C00032CEFD10023184607B0F0BD074A03ADF4
:10BB7C0007CA85E8070055F824100A6A46F82420FD
:10BB8C000A62002AEBD0EEE72B0A0500A0FE0400A7
:10BB9C00F7B504460846FFF7C5FF06B204EB4606A8
:10BBAC00B38A0D46DB072BD5204603F0F4F8294663
:10BBBC00204603F060F858B1204603F072F80022DA
:10BBCC00276800B207EB8003C3F81025C3F81025D3
:10BBDC002946204603F08EF8002101A8B182019578
:10BBEC00FFF790FF019B00EB8300D0F88020064B01
:10BBFC00134043F00203C0F88030084603B0F0BD98
:10BC0C006FF01500FAE700BFF0F0FCFF2DE9F043F0
:10BC1C00044685B0084616461D46FFF783FF0F46BF
:10BC2C00804636B3204603F031F818B9204603F0AD
:10BC3C0022F828BB0FFA88F904EB4909B9F814303B
:10BC4C0013F01C0F02D07378012B19D001238DF83F
:10BC5C000F3000233846CDE90063721CB31C0DF184
:10BC6C000F0102F0B0FFB9F8143043F00303A9F848
:10BC7C001430002D40D03946204603F007F820B987
:10BC8C006FF0150005B0BDE8F08300222978236819
:10BC9C004FEA810C03EB8103C3F81025C3F8102580
:10BCAC000FFA88F204EB4202938A23F4604323F0E8
:10BCBC00200393826E78FEB12468A8786444D4F88B
:10BCCC0010550E4B36042B40C4F8103541F6F0736A
:10BCDC0006F4403603EA07130005D4F81055334335
:10BCEC0000F4801003432B43C4F81035938A43EAC5
:10BCFC00413343F0200393820020C3E70FE0ECFFB5
:10BD0C0070B590F87440054690F8756024BB2146D8
:10BD1C004622143003F0F4FA2146114B286853F8EC
:10BD2C0036608E420ED10024C0F84041D0F840312C
:10BD3C00C0F30830FEF746FB0123204685F874302B
:10BD4C002B6670BDCBB29B0003F58072402B04BFF9
:10BD5C00845083580131E4E76FF07700F1E700BFBE
:10BD6C007800050090F87500024B03EB800002F0A0
:10BD7C00F4BE00BFB031012010B5064B90F8750031
:10BD8C000C4603EB800002F0CEFE0028A4BF20700E
:10BD9C00002010BDB03101202DE9F04F814659F83B
:10BDAC00043B8BB0D3F8041390F8754000936C4BA4
:10BDBC00C9B241F48031804653F83420009802F027
:10BDCC00C3FFC10305463AD50023CDE907330993D8
:10BDDC00634B07A803EBC4035B6819460193FFF799
:10BDEC00ABFE042303EBC40303934FF0000B5D4B3A
:10BDFC000DF11C0A0293029A594912F8013B029266
:10BE0C00039A02EBD3028A5C03F0070322FA03F3D2
:10BE1C00DA071AD40BF1010BBBF1030F0AF1040A78
:10BE2C00E9D14FF480310022009802F08DFF019986
:10BE3C0007A8FFF781FE0028D7D125F4803501240F
:10BE4C00002D75D10BB0BDE8F08F474B5B440493CC
:10BE5C00DAF800100029DDD091FAA1F1B1FA81F1E4
:10BE6C00049B1C7841EA44142046FFF75BFE08EB68
:10BE7C004000878AC808BB08059301231AF80020E4
:10BE8C0001F0070103FA01F122EA01020AF800208D
:10BE9C0006A80694FFF736FE069A059B203250F84A
:10BEAC002220C7F382065B073746C2F3014223D533
:10BEBC004846D6B221463A4602F0FDFE06A8069444
:10BECC00FFF720FE069B203350F82330C3F30143C9
:10BEDC009E4207D10021204602F0BEFE314620468C
:10BEEC0002F0BAFE06A80694FFF70CFE0122069B90
:10BEFC0002FA03F30362ABE7022A0DD103212046B9
:10BF0C0002F0AAFE06F00503012BEBD13A462146BE
:10BF1C00484602F0D0FEE5E702212046059202F0E9
:10BF2C009BFE032EF2D0059A032ADBD1022EECE7FE
:10BF3C0095FAA5F3B3FA83F3009904FA03F225EA10
:10BF4C00020503F5A27251F8222008EB4303484680
:10BF5C00B3F86410C2F3014202F0ADFE70E700BF0B
:10BF6C00780005002B0A05002B0A0500074B027A06
:10BF7C00D3F8101521F001010A43C3F8102502680B
:10BF8C00C3F8A4264268C3F8AC26704700200E40C4
:10BF9C004FF0FF326FF0404330B5044CD4E9000150
:10BFAC00824273EB0105F9D330BD00BF30270E4040
:10BFBC0030B50C25074B1C1894F8544005FB043382
:10BFCC00C3E9031218750123034A8340C2F81433E2
:10BFDC0030BD00BF0030012000200E40F0B53D4DBB
:10BFEC0085B02C78002C6FD13B4A01AB07CA83E893
:10BFFC0007003A491846D1F8102522F00202C1F880
:10C00C001025FFF7B3FF0723672202F0010121443B
:10C01C00013BCCB24FEA5202F7D1052C57D119464D
:10C02C004FF0010C2B4E00246720CFB204E00CFA29
:10C03C0002F220EA0200013490FAA0F25FFA84FEC8
:10C04C00BE45B2FA82F2F2D30131327505292A4487
:10C05C0082F8547006F10C06E5D101210024204829
:10C06C009A0801FA02F212F0670F18BF1C50043341
:10C07C00302BF5D1E320FEF7A5F9184B1949D3F86D
:10C08C00102503F5C07322F00202C3F8902340F68A
:10C09C00FF72C3F8982100221A60A3F58070043354
:10C0AC008B420260F8D101240C4B0F4A1C660F4BDB
:10C0BC005D201B68B3FBF2F358430D4B23439847A9
:10C0CC0000202C7005B0F0BD6FF07700FAE76FF030
:10C0DC008B00F7E700300120ACFE040000200E407E
:10C0EC0000210E40B0210E4040420F00AC31012027
:10C0FC00D0FE040073B52B4C0546636801A803F011
:10C10C0001030E46019302F00EFD00283FDB0023D5
:10C11C0020753370636823F001036360A36843F0F8
:10C12C000103A360204BD3F81025900733D4D3F828
:10C13C00102542F00202C3F81025C5B1D3F83827F8
:10C14C0012F0010202BFD3F8381741F00101C3F815
:10C15C003817154BD3F83017D3F834174900F9D4E6
:10C16C002AB9D3F8382722F00102C3F838270F4B2D
:10C17C000F4A1B68B3FBF2F30B4A03EB43136BB18F
:10C18C00D2F83017D2F8340710F0804001D102B049
:10C19C0070BD013BF3E76FF07700F8E76FF07300C9
:10C1AC00F5E700BF0030012000200E40AC3101202B
:10C1BC0040420F0070B51D461446184A9DF8106099
:10C1CC00131893F8543000B20C3302EBC30142F84D
:10C1DC0033404D60C5F31301AEB10201104E02F1B4
:10C1EC00804202F562228000C2F820450644C2F863
:10C1FC002415336833B1FFF7CBFEA042A94101D21D
:10C20C000023336070BD030103F1804303F5622307
:10C21C00C3F82045C3F82415F4E700BF0030012013
:10C22C0000210E40F0B50E4D2B1893F85430000140
:10C23C000C3355F8334005EBC3077E68641800F1E6
:10C24C00804021F0004146F1000641EAC27100F540
:10C25C00622045F833407E60C0F82815F0BD00BF61
:10C26C0000300120F7B5284B284CD3F81C6304F19F
:10C27C0088070EB903B0F0BD96FAA6F00123B0FA08
:10C28C0080F08340DA43224926EA0306231893F808
:10C29C005450830019440C2303FB0543DB6873B330
:10C2AC00D7E8EF3F03EA020CC7E8EECFBEF1000F70
:10C2BC00F6D1C340DB0719D5020102F1804202F529
:10C2CC006222D2F82435D2F82025D1F800C0BCF176
:10C2DC00000FCED04FF0000CC1F800C00C2101FBB8
:10C2EC00054529690091E9688847C2E705F10C0307
:10C2FC0004EBC30C54F83320DCF80430E5E70A688F
:10C30C00002AB6D00B60B4E700200E4000300120AC
:10C31C0000210E4010B50446FDF7F6F80348012144
:10C32C00034A02F014F9204602F0AAFE28FE04008B
:10C33C002E0A05002DE9F84304460D4600AFEFF335
:10C34C001188202383F31288BFF36F8F0428294AA6
:10C35C0098BF294BE9468AB09668117C98BF53F870
:10C36C0020306A4688BF254BC2E9073140F20133C1
:10C37C0023489384234BC2E9050442F8103F002361
:10C38C004FF431512048FDF78FF9CD4645B1EB699B
:10C39C00C3F3080323B101211C4A1B4802F0D7F850
:10C3AC002EB1304602F099FE08B1037803B9184853
:10C3BC00E9468AB06A46174BD061C2E9053640F2AD
:10C3CC0001331384144B42F8103F00234FF41151E6
:10C3DC000D48FDF769F92946CD462046FFF79AFF2F
:10C3EC0088F31188BFF36F8F3046FDF78BFFBD4686
:10C3FC00BDE8F883DC3B0120880005003D0A050000
:10C40C00530A05000500000128FE04007B0A050004
:10C41C004B0A05009C0A05000400000138B50A4BC4
:10C42C0053F82040013053F82050A54200D838BDB5
:10C43C00606830B1037FDB0701D402F0FEFD0834E5
:10C44C00F3E723689847FAE79C000500012270B5D2
:10C45C00294B032086B01A70FFF7E0FFFDF7E8FBCD
:10C46C000420FFF7DBFF254C254D2646AE4204F198
:10C47C00300410D300F054FC204C224EAC4226D396
:10C48C0000F062FCFCF770F91F4A137B23F00103E8
:10C49C00137306B070BD54F80C3C059354F8103C63
:10C4AC00049354F8143C039354F8183C029354F836
:10C4BC001C3C019354F8203C009354E90A2354E9A2
:10C4CC000C0100F0F5F954F8303C5E65CDE7D4E989
:10C4DC000A23B3F1FF3F08BFB2F1FF3F05D052EA88
:10C4EC000301206803D100F019FD3034C6E7314652
:10C4FC00183000F0B5FEF8E7123C0120ACFD04004A
:10C50C00ACFD0400E5F10400A0380120C82370B58F
:10C51C00144E86B003FB0066134B012205930F23C8
:10C52C00CDE903320023CDE9013314234FF4A0727B
:10C53C000E4D0F4903FB0055044602FB00110D4B39
:10C54C003046009500F0B4F9737B2C7423F004038F
:10C55C007373094B013403EBC423EE606B6006B0BC
:10C56C0070BD00BFD8370120FE0A0500DC3B01205E
:10C57C00184701209DF00400183F0120BFB5002092
:10C58C00FFF74CFF294B03F5006282F3088883F315
:10C59C000A880024E023264D264F85F82230EC77BC
:10C5AC002C766C76AC7685F820406B6A43F4E023ED
:10C5BC006B6285F82340FDF71FFEFDF799FF4FF0E6
:10C5CC00FF33AB62EB62FEF73BF9FDF7B9FFFCF70B
:10C5DC00F9FE194800F000FA0120FFF71FFF0220B6
:10C5EC00164DFFF71BFF00F0E3FB154B15495D6182
:10C5FC00154B4FF48062059301232846CDE9034384
:10C60C00CDE901443B46009400F052F906466A7BA2
:10C61C00284622F004026A7302F09BFD2046FFF7C5
:10C62C0075FF3A4631462846FDF740FF183F01207A
:10C63C0000ED00E059C4040068390120A038012045
:10C64C00DC3B012058480120030B05002DE9F34188
:10C65C00044617461E46EFF31188202383F31288F5
:10C66C00BFF36F8FC368334A7BB18068916888428F
:10C67C0019D057EA060318D188F31188BFF36F8FCE
:10C68C006FF00F0002B0BDE8F081916891F90E10C7
:10C69C000133E36093682161A36088F31188BFF3D1
:10C6AC006F8F0020EEE72169F2E791F90E1090F9F7
:10C6BC000E306FF07E029942A8BF19469142B8BF66
:10C6CC0011468B422DDD02F0EEFC0546224641461A
:10C6DC00CDE90076184800F069FA0028E1D0EFF3B4
:10C6EC001186202383F31288BFF36F8FA068D0B11B
:10C6FC00236821699C420AD04BB193F90E309942C0
:10C70C00A8BF19466FF07E039942B8BF194602F0D4
:10C71C00CAFC40B13146084800F0DCFA6FF00A0060
:10C72C00B0E70025D2E7002DF4D186F31188BFF3D2
:10C73C006F8FF3E7DC3B0120133C0120F8B58368D5
:10C74C000546002B40D0234A926893423FD1C368E0
:10C75C00012B03D9013BC3600020F8BDEFF3118717
:10C76C00202383F31288BFF36F8F0169806802F076
:10C77C009AFC2C68AC4207D10023C5E9023387F33D
:10C78C001188BFF36F8FE7E7002CF5D0D4E90032A6
:10C79C00002613605A60637BC4E9006623F0020331
:10C7AC006373A66004F1180002F047FDAC6094F9C5
:10C7BC000E3020462B61C4F8BC6002F0CAFC39462E
:10C7CC00054800F087FAC7E76FF01500C5E74FF092
:10C7DC00FF30C2E7DC3B0120133C012070B5EFF3C6
:10C7EC001186202383F31288BFF36F8F0468A04255
:10C7FC001BD0D4B1D4E90032002513605A60637B9E
:10C80C00C4E9005523F002036373A56004F118001A
:10C81C0002F013FD2046C4F8BC5002F09AFC3146DD
:10C82C00BDE87040064800F055BAD0E902329A4291
:10C83C0018BF0133836086F31188BFF36F8F70BD0F
:10C84C00133C012013B5EFF31181202484F31288DB
:10C85C00BFF36F8F846844B1013C846081F311880D
:10C86C00BFF36F8F002002B010BD52EA030406D153
:10C87C0081F31188BFF36F8F6FF00F00F3E7CDE9F1
:10C88C0000230246014800F091F9ECE7133C01202B
:10C89C0010B5044608B9054B9C681F2204F18400AE
:10C8AC0002F036FD002084F8A30010BDDC3B012013
:10C8BC002DE9F04F984685B000F15803C0E91633C6
:10C8CC00129B002503730423D61D26F00706437321
:10C8DC00119B01EB060A0F46C0E9065551468560CF
:10C8EC008373C5730446DDF838B0DDF84C90FDF762
:10C8FC0035FA109B073020F00700C4E92976C4F8FC
:10C90C00AC0002930F9BAAEB0006CDE900B33246B4
:10C91C00434639462046FDF7A9FD0F9BC4E91C8B05
:10C92C00A367109B656584F86C50E367EFF3118384
:10C93C00202282F31288BFF36F8F104F3A6A3C6249
:10C94C00C4F8802083F31188BFF36F8FB9F1000F07
:10C95C0011D01F22494604F1840002F0D9FC84F85E
:10C96C00A350BB680BB1D3F8B0303046C4F8B0302C
:10C97C0005B0BDE8F08F84F88490F2E7DC3B012031
:10C98C00F0B5002587B00595109DDDE9127604956C
:10C99C000F9D044603950E9D02950D9D01950C9DD2
:10C9AC000095FFF785FFB6F1FF3F08BFB7F1FF3FDA
:10C9BC0005D056EA070305D1204600F0AFFA204611
:10C9CC0007B0F0BD3A46334604F11800014900F0B7
:10C9DC0047FCF4E7E5F1040040F2011383810023E6
:10C9EC00C0E92933C0F8B030014B9860704700BFE4
:10C9FC00DC3B01206FF00A01094A9368C3F8BC10B4
:10CA0C000849C3F8B8004B6843F080534B600023CF
:10CA1C0083F31188BFF36F8F9368D3F8BC00704712
:10CA2C00DC3B012000ED00E070B590F90D20437B5C
:10CA3C00002A36DBD90634D11B4C63F07F03224627
:10CA4C00437352F8183FE169934207D1C0E90021C2
:10CA5C000860E06111E09942F8D01B68002BF5D01A
:10CA6C0090F90E5093F90E60B542F4D0AE42F2DD5F
:10CA7C005968C0E9003108605860A569954200D03A
:10CA8C0005B9E568A3685A7BD20604D1DA897F2AF6
:10CA9C0001D9AA6932B1AB4202D0284600F038FB6A
:10CAAC00656170BD6361FCE7DC3B012038B590F932
:10CABC000D200146002A437B04DA03F07F03437305
:10CACC0002F00DFB0D4D2A4652F8184FAB689442FC
:10CADC0000D004B9EC688B4207D05A7BD20604D143
:10CAEC00DA897F2A01D9A2692AB1A34202D0204651
:10CAFC0000F00EFB23466B6138BD00BFDC3B012010
:10CB0C00B3F1FF3F08BFB2F1FF3F03D00249183029
:10CB1C0000F0A6BB704700BFE5F1040070B590F9BA
:10CB2C000D200146002A437B04DA03F07F03437394
:10CB3C0002F0D5FA1C4C4B7B224663F07F034B73FF
:10CB4C0052F8183FE069934207D1C1E90020016017
:10CB5C00E16111E09842F8D01B68002BF5D091F9F7
:10CB6C000E5093F90E60B542F4D0AE42F2DD586827
:10CB7C00C1E9003001605960A569A368954200D0F5
:10CB8C0005B9E5688B4207D05A7BD20604D1DA8905
:10CB9C007F2A01D9AA692AB1AB4202D0284600F0FB
:10CBAC00B7FA2B46636170BDDC3B0120F8B5DDE9BB
:10CBBC0006670D4B0C46986811460C4A1060EFF353
:10CBCC001182202282F31288BFF36F8F9D68284652
:10CBDC0002F097FA284632463B46FFF791FF204673
:10CBEC00BDE8F840FFF706BFDC3B0120003C01200C
:10CBFC00F8B50446EFF31187202383F31288BFF3B3
:10CC0C006F8F437B49B203F01F02002A0CBF012631
:10CC1C00002639D103F07F032D4D437302F05FFAE8
:10CC2C002A46437B817363F07F03437352F8183FAA
:10CC3C00934227D1E869C4E900200460EC610FE05D
:10CC4C009842F8D01B68002BF5D093F90EC06145C3
:10CC5C00F6D08C45F4DD5968C4E900310C605C6099
:10CC6C00AC69944200D004B9EC68AB689C4202D029
:10CC7C00204600F04DFA6C6187F31188BFF36F8F7B
:10CC8C003046F8BDE869DEE79B071ED5856802F0E3
:10CC9C0026FA81732B689D4209D16B68C4E9005355
:10CCAC001C606C60E8E76A689342F6D01B68002B46
:10CCBC00F3D093F90E209142F5D08A42F3DD5A68F5
:10CCCC00C4E9003214605C60D6E78173D4E700BF1E
:10CCDC00DC3B012049B9EFF3058030B9054B5A69AB
:10CCEC009B689A4201D0FFF785BE81F31188BFF390
:10CCFC006F8F7047DC3B0120034648B9EFF3058288
:10CD0C0032B9064A51699268914201D0FFF772BE5E
:10CD1C0083F31188BFF36F8F704700BFDC3B01209A
:10CD2C00EFF31181202383F31288BFF36F8F054B30
:10CD3C009A68D37B013BD37381F31188BFF36F8F58
:10CD4C00704700BFDC3B012070B5EFF31186202348
:10CD5C0083F31288BFF36F8F144DAB68DA7B01320B
:10CD6C00DA732A4652F8184F944200D004B9EC6892
:10CD7C005A7BD20604D1DA897F2A01D9A2692AB159
:10CD8C00A34202D0204600F0C3F923466B6186F320
:10CD9C001188BFF36F8FEFF31180202383F3128878
:10CDAC00BFF36F8FBDE87040FFF7A6BFDC3B0120DF
:10CDBC00024B03F11802C3E906227047DC3B012049
:10CDCC0070B5EFF31186202383F31288BFF36F8FB6
:10CDDC001B4CA168E0690B68814214BF1A46002203
:10CDEC0049680B605960A368E1692AB9154AC3E91F
:10CDFC0000210B60E3610CE093F90E0092F90E50E8
:10CE0C00A84218D0854216DD5168C3E900210B6099
:10CE1C005360A5690B4B9D4200D005B9E568A3682A
:10CE2C009D4202D0284600F073F965613046BDE89A
:10CE3C007040FFF7DFBD8A42D8D01268D5E700BF3B
:10CE4C00DC3B0120F43B0120F8B550EA0103064617
:10CE5C000C4603D1FFF7B4FF0020F8BDEFF31187A8
:10CE6C00202383F31288BFF36F8F124D124BA868E7
:10CE7C001860FFF71BFEA868234632460F4918308E
:10CE8C0000F0EEF9AA680446537B384643F00403DD
:10CE9C005373FFF7AFFDAB68D3E90A23B3F1004F2F
:10CEAC0008BF002AD8D102F0F0F9201A20EAE0706D
:10CEBC00D3E700BFDC3B0120003C0120E5F104007E
:10CECC0038B504460D46FFF7BFFFB5F1FF3F08BF6D
:10CEDC00B4F1FF3F0246204618D000234FF47A7479
:10CEEC0047F611201946C2FB040147F61222904264
:10CEFC0071F100020BD3084B834243F608538B416C
:10CF0C0007D347F612220023FBF7B2FA38BD1846B6
:10CF1C00FCE76FF00040F9E7ED85FFFF38B50446FC
:10CF2C00EFF31185202383F31288BFF36F8F437BBC
:10CF3C005B070FD5183002F080F9637B204623F095
:10CF4C0004036373FFF770FD2946BDE838400448BD
:10CF5C00FFF7C0BE85F31188BFF36F8F38BD00BFDC
:10CF6C00133C0120014B9868704700BFDC3B01204B
:10CF7C002DE9F8430446077BEFF31185202383F357
:10CF8C001288BFF36F8F437B190705D585F3118882
:10CF9C00BFF36F8FBDE8F883D90943F0080260D165
:10CFAC004273A36813B1204602F0A1F804F11800F3
:10CFBC0002F043F9A66D04F15808B04511D04FF0BA
:10CFCC00000976B1304602F092F806F1180002F032
:10CFDC0034F93046C6F8BC90FFF726FDA66DB04577
:10CFEC00EFD1DFF8C480D8F808309C4241D1EFF380
:10CFFC000589B9F1000918BF4FF00109D8F818607C
:10D00C002A4A964200D00EB9D8F80C60B34202D02E
:10D01C00304600F07DF82046C8F8146001F074FB2F
:10D02C00204600F0CDF8B9F1000F02D02048FFF7F0
:10D03C00D3FCD8F808309C4231D1EFF3058373BB95
:10D04C00227BD20718D42846FFF7D4FCFB07A1D5C6
:10D05C00002383F31188BFF36F8F0423184602DF7C
:10D06C0098E703F07F0343F00803437302F037F8AB
:10D07C0097E74FF00009C1E785F31188BFF36F8F75
:10D08C0083F31188BFF36F8F0423184602DFEFF38D
:10D09C001180202383F31288BFF36F8FD4E785F3BD
:10D0AC001188BFF36F8FD1E7DC3B0120F43B0120EB
:10D0BC00683901200122044BC01A044BC01058439C
:10D0CC00034B1A54704700BF303A0120ABAAAAAAEE
:10D0DC00133C0120C3897F2B12D80A4B1B6863B108
:10D0EC00094B90F90E201B689A4209DB437BDB0647
:10D0FC0006D1064BC31A18BF012303F00100704779
:10D10C000023FAE7B8310120043C0120D837012074
:10D11C0070B50E4B0E4C1E7C054606EB460304EB1D
:10D12C00C304204602F089F800220A4B28469A557F
:10D13C00FFF7D0FF48B1084B2046BDE870401A6895
:10D14C000649013AD31700F08BB870BDDC3B0120C7
:10D15C00303A0120133C0120B8310120C1D0040029
:10D16C0038B5EFF31185202383F31288BFF36F8F4B
:10D17C00104B114A9C681068A04206D1FFF7C8FFFB
:10D18C0085F31188BFF36F8F38BD00211B7C1160B4
:10D19C000A4AD35C002BF3D02046FFF79BFF0028F4
:10D1AC00EED0637BDB0602D12046FFF7B7FC2046AE
:10D1BC00E4E700BFDC3B0120003C0120133C0120D4
:10D1CC00EFF31181202383F31288BFF36F8F0C4A86
:10D1DC00136A834208D1D3F88030136281F311882B
:10D1EC00BFF36F8F70471346002BF7D0D3F8802016
:10D1FC008242F8D1D0F88020C3F88020EEE700BF3F
:10D20C00DC3B0120024B1868984208BF0020704795
:10D21C00BC310120034B1B680BB9FEF7B7B80020DB
:10D22C00704700BF083C012030B570B10B4B5B68F8
:10D23C0098420AD0036843B1D3E90421D0E90445EC
:10D24C00121941EB0501C3E90421D0E90032136046
:10D25C005A600023C0E9003330BD00BFBC3101204F
:10D26C00B3F1FF3F08BFB2F1FF3F2DE9F84F044681
:10D27C00994615461F467AD08160EFF3118820231A
:10D28C0083F31288BFF36F8FB9F1000FDFF8E4A0BE
:10D29C0020DBFFF7BFFFDAE90027013549F1000970
:10D2AC002D1849EBE07306464FF00109C4E904530D
:10D2BC00AD1843EB0707FFF7A5FF0346DFF8B8E00F
:10D2CC00DEF804A0EBB9C4E900EACAF80040CEF8D5
:10D2DC00044028E06FF00103DAE900125B1A4FF00A
:10D2EC00FF3161EB02025B1B62EB0902012B72F155
:10D2FC000001BCBF012300224FF00009C0E9043239
:10D30C00D9E7D3E9041CD4E904208A4270EB0C0B56
:10D31C0024DA891A5A686CEB0000C3E90410C4E9DA
:10D32C00003214605C60FFF76DFF84420ED1134B2A
:10D33C001B685BB9B9F1000F02D1FFF76BFF064612
:10D34C00304601F063FF0021FEF734F888F31188B2
:10D35C00BFF36F8F28463946BDE8F88F521A60EB41
:10D36C000C009A45C4E90420ADD01B68AAE700253F
:10D37C002F46EFE7483A0120BC310120083C012040
:10D38C002DE9F047EFF31185202383F31288BFF3C7
:10D39C006F8FDFF8A0900026C9F800000027FFF778
:10D3AC0031FFDFF89480D9F80030D8E900ECD917B8
:10D3BC0050B1D0E90442A34271EB020A1BDAE41A21
:10D3CC0062EB0102C0E90442002413EB0E034CEBA8
:10D3DC0001012046C8E90031C9F8004001F016FFF0
:10D3EC002146FDF7E7FF85F31188BFF36F8FBDE88A
:10D3FC00F047FFF7B5BE14EB0E024CEBE473C0E93B
:10D40C000467C8E90023FFF70FFF85F31188BFF30A
:10D41C006F8F83689847EFF31185202383F312886D
:10D42C00BFF36F8FD9F800301B1BC9F80030FFF722
:10D43C00E9FEB8E7083C0120483A012010B5EFF3AB
:10D44C001184202383F31288BFF36F8FFFF7E2FE62
:10D45C000346054AD2E90001181841EBE37184F345
:10D46C001188BFF36F8F10BD483A0120F8B50546FF
:10D47C00EFF31187202383F31288BFF36F8F0368B8
:10D48C0023B187F31188BFF36F8FF8BDD0E90A463B
:10D49C00611C46F10002022972F1000236D3012C04
:10D4AC0076F10002BCBF01241E46013C46F1FF365A
:10D4BC0001F0EFFE013041F10001001946EB0101D2
:10D4CC00012871F1000130DB01F0E3FE6FF0020383
:10D4DC00013041F10001001946EB010183426FF06C
:10D4EC0000438B4126DB01F0D4FE013041F10001F9
:10D4FC006FF00102001946EB01034FF0FF31121AD5
:10D50C0061EB030328461C49FFF7AAFE2B6B013382
:10D51C002B632B6A93B93C462B4653F8185F9D42FC
:10D52C0000D0D5B984F31188ADE76FF001024FF04C
:10D53C00FF33E7E700224FF00043E3E787F311885E
:10D54C00BFF36F8F28462B6A9847EFF31184202383
:10D55C0083F31288BFF36F8FDEE7284601F008FED5
:10D56C000023C5F8BC3084F31188BFF36F8F2846B5
:10D57C00BDE8F84001F0EDBD79D404002DE9F0418F
:10D58C0005461C4690461F46EFF31186202383F375
:10D59C001288BFF36F8FB4F1FF3F08BFB2F1FF3FAA
:10D5AC0005D186F31188BFF36F8FBDE8F081002C95
:10D5BC0009DB012A74F10003BCBF0122002412F123
:10D5CC00FF3844F1FF37284601F037FEDDE906014C
:10D5DC000023C5E90A012B6342463B462846024913
:10D5EC00FFF73EFEDDE700BF79D404000CB430B584
:10D5FC0089B005460C461C22002101A801F080FED2
:10D60C00022305958DF806300D4B029323462CB161
:10D61C00B4F1004F28BF4FF00043013B1D440DAA4D
:10D62C000C9901A80695009200F00CF814B1059B1A
:10D63C0000221A7009B0BDE8304002B0704700BF3C
:10D64C0001F404002DE9F04F43688DB01546804677
:10D65C00029383789A0740F10D8100240E78002EF6
:10D66C0000F00A81252E0BD04B1C0393013441464C
:10D67C003046029B98470028C0F2F6800399EDE7EC
:10D68C004E788B1C252E0393F0D00027B946BB4651
:10D69C00BBF11F0F38D8A6F12003102B0AD8DFE8F6
:10D6AC0003F02A0909300909092109090928092D5A
:10D6BC0009091F00A6F13003092B33D92A2E37D1C3
:10D6CC001BF0400F55F8043B40F08280002BA7BFA5
:10D6DC004BF0200B9946C3F100094BF0280B01E0ED
:10D6EC004BF0010B039B13F8016B0393002ECFD16E
:10D6FC0030E04BF0020B4BF0040BF3E74BF0080B54
:10D70C00F0E74BF0100BEDE7BBF17F0F19D8A6F14A
:10D71C003003092BD2D81BF0400F03D00A2101FB98
:10D72C000737DFE70A214BF0200B01FB0939D9E75A
:10D73C002E2E06D11BF0400F40F09E804BF0400B7C
:10D74C00D0E76C2E31D02BD8682E36D06A2E3CD038
:10D75C004C2E3AD0002F46F02003B8BF2BF04002DD
:10D76C00A3F16501BCBF00271FFA82FB022901D976
:10D77C00612B2FD107350727DFF8ACA225F0070561
:10D78C0008351BF0080F66D00AEB070B56465E45B2
:10D79C0063D1A4EB0A0AA9EB070906EB0A026FE1B5
:10D7AC00742E9FD07A2E9DD0D4E71BF0800F18BF1B
:10D7BC004BF4007B4BF0800B94E71BF4807F18BF7D
:10D7CC004BF4007B4BF4807B8CE74BF4207B89E79C
:10D7DC001F4687E7A6F16301122900F2F080DFE80B
:10D7EC0011F013004F00EE00EE00EE00EE004F00C3
:10D7FC00EE00EE00EE00EE00EE00FE00E900EE00A2
:10D80C00EE001B00EE00AF0055F8043B01270DF1B4
:10D81C00180A8DF81830B4E755F804AB834BBAF1FD
:10D82C00000F08BF9A461BF0400F504614BF3946F4
:10D83C004FF0FF3101F07CFD0746A2E74146202066
:10D84C00029B984700280FDB013EB742F6D34C44AD
:10D85C00B146A41B98E74E46F7E7414616F8010B74
:10D86C00029B9847002892DA98F8023043F00403A0
:10D87C0088F802304FF0FF3420460DB0BDE8F08F31
:10D88C001BF0800F34D01BF4007F2CD0073525F013
:10D89C000705AA4669685AF8080B2BF010050029F1
:10D8AC00ADB237DA404245F4806561EB41010DF1D0
:10D8BC00180B0A235A4601F047FDA0EB0B0301930A
:10D8CC006B0662D5019B25F001019F4289B240F3A2
:10D8DC00A180002E00F0998015F0100240F09C8081
:10D8EC00BB460D4623E0AA465AF8040BC117D4E7F1
:10D8FC00AA461BF4807F5AF8041B01D10846F5E7B1
:10D90C001BF4007F19BF48B241F3C01108B241F3B8
:10D91C00C031C2E750EA0103C9D11BF0400FC6D099
:10D92C00002FC4D12BF01102BB46019795B240F2E7
:10D93C00064115EA01021CBF0BF1010B00222CE081
:10D94C002BF010020A231FFA82FB1BF0800C49D02B
:10D95C001BF4007115BF0735AA4625F007055AF8C8
:10D96C00040B1EBFAA4669685AF8080B50EA010559
:10D97C0045D12BF016051BF0400FADB242D0002F55
:10D98C0040D12BF01702019795B215F0100248D038
:10D99C00019B002E42D103F1010B29075AD4EB074E
:10D9AC0006D5D9456FDDA9EB0B030199CB465F1862
:10D9BC005B4649E04BF0100B10237826C5E7782B1B
:10D9CC0004D1C6F1780343F01003BEE7414625208D
:10D9DC00029B98470028FFF647AF023447E608231E
:10D9EC000026B2E7AA461BF480715AF8040BBDD08E
:10D9FC001BF400711ABFC0B2614680B2B6E72BF0BF
:10DA0C00060295B20DF1180B54E725F01105BB4633
:10DA1C00ADB28CE70D46B8E73B460D4603F1020B61
:10DA2C00BBE7DDF804B082E7120B05000B0B050019
:10DA3C00CDE9043241462020029B98470028FFF68E
:10DA4C0013AF049B059A01339945F1DCA4EB0B0150
:10DA5C009B46CC180AB341463020029B98470028BD
:10DA6C00FFF602AF8EB901342744391B019B994252
:10DA7C0024DC1D4655BB019AA9EB0B0955462244E3
:10DA8C001446914433E0019F92E7023441463046FC
:10DA9C00029B98470028E7DAE6E640F206410D4281
:10DAAC00E2D015F0020F04F10104414614BF2B2003
:10DABC00202015F4806F18BF2D20E9E74146302057
:10DACC00029B013498470028CFDACDE606AB013D26
:10DADC004146585D029B98470028CBDAC4E6414684
:10DAEC002020029B013498470028FFF6BDAEA9EB1D
:10DAFC000403002BF3DCC1E57047836800EBC10124
:10DB0C00B3F5004F2CBF51F8220031F812007047CA
:10DB1C0000EBC1018068B0F5004F2CBF41F82230FA
:10DB2C0021F812307047012208B5FFF7E6FFD0400C
:10DB3C0008BD836800EBC101B3F5004F08D34B68F7
:10DB4C001AB143F001034B60704723F00103FAE76D
:10DB5C004B881AB143F001034B80704723F001034B
:10DB6C00FAE753000122FFF7D3BF8368481CB3F5D3
:10DB7C00004F34BF042308230833A0EBD300B0FAC2
:10DB8C0080F0C0F11F0070472DE9F0410D4686680A
:10DB9C000446FFF7C8FFB6F5004F014601D3012834
:10DBAC0032D02046FFF7E1FF04EB80010E6996B9F5
:10DBBC000122E36882401343E36002220D612B468D
:10DBCC0029462046FFF7A4FF032229462046BDE83C
:10DBDC00F041FFF79DBF022231462046FFF78DFF33
:10DBEC000746034629462046FFF792FF0322334699
:10DBFC0029462046FFF78CFF39462B462046FFF777
:10DC0C0087FF02223146E1E7BDE8F081B2F5802FB3
:10DC1C002CBF082304232DE9F0410026D21A8C18BE
:10DC2C00CD1D25F0070524F00704641BE4080560EE
:10DC3C0021462846AC60EE60FFF797FF421D92002C
:10DC4C00013002F107074FEAD7073146A2F1100263
:10DC5C0005F11000B8BF324601F052FB3A4631468E
:10DC6C002846FFF77EFF3346324631462846FFF7FB
:10DC7C004FFFA4EB0708284631460122FFF759FF56
:10DC8C0042463946FFF76DFF3B4632463946284639
:10DC9C00FFF73EFF21462846FFF763FF4346324617
:10DCAC0021462846FFF734FF214628460122FFF77C
:10DCBC0040FF3946BDE8F041FFF766BF2DE9F0475C
:10DCCC0006460D46174698462BB34FF0000A98F8B7
:10DCDC00004093F80190DB78A40004EB430498F81F
:10DCEC0002301C444444CA4509D339463046AC463C
:10DCFC00D8F8042008F10803BDE8F047604714F891
:10DD0C00013B0AF1010A204648F82340FAF7CAFB06
:10DD1C0001300444E7E76FF01500BDE8F08770B5FB
:10DD2C00002502462846144614F8013B0BB9184648
:10DD3C0009E098B18D4207D1702B04D0A3F14002B9
:10DD4C003A2A0BD8002070BDA3F140063A2E05D814
:10DD5C0053780135941C002BE9D00020252B22464A
:10DD6C0008BF80F00100DEE7002070470FB407B554
:10DD7C0004A951F8040B019100F066FB03B05DF8A7
:10DD8C0004EB04B0704710B50369024613F00800A9
:10DD9C0009D11368D4689C429BBF0120126AE31A14
:10DDAC00D31A0B6010BD00231846FAE713B501A96E
:10DDBC000446FFF7E8FF20B1019BE268013B1344E6
:10DDCC000193206A019BC01A013802B010BD10B536
:10DDDC00044650182269236AD20702D5013B184029
:10DDEC0010BD984228BFC01AFAE710B504460A467F
:10DDFC00C168FFF7ECFF2369E06023F0080323619F
:10DE0C0010BD38B50D46C2698B00016843F00203A2
:10DE1C00044642F8213001682A46FFF7D8FFE36830
:10DE2C006168984208BF2369206008BF43F008036B
:10DE3C002A46204608BF2361FFF7C9FF606038BD42
:10DE4C002DE9F74FC768C6699B4606EB870300931D
:10DE5C0016F82730044603F00303022B884691463C
:10DE6C004FF000030BD01360CBF8003023699B07F5
:10DE7C0013D44FF0000A504603B0BDE8F08F56F8AB
:10DE8C00271013608908CBF80030EFD0FFF7ADFFF7
:10DE9C00E368A3604FF0010AEDE7A36906EB870086
:10DEAC00984716F82720054612F0010AE1D012F027
:10DEBC0002021FD0B8F1000F03D041462046FFF7F5
:10DECC00A0FF61682A462046FFF781FFD4E90221B2
