:020000024000BC
:10800000008701202DC30500D559060019C30500BE
:1080100019C3050019C3050019C3050019C30500DC
:10802000000000000000000000000000A1C40500E6
:1080300019C305000000000031C4050019C3050084
:1080400009C6050009C6050009C6050009C60500E0
:1080500009C6050009C6050009C6050009C60500D0
:1080600009C6050009C6050009C6050009C60500C0
:1080700009C6050009C6050009C6050009C60500B0
:1082500009C605003D88060009C6050009C60500D7
:1082600009C6050009C605002788060009C60500DD
:1082700009C6050009C6050009C6050009C60500AE
:1082800009C6050009C6050009C6050009C605009E
:1082900009C6050009C6050009C6050009C605008E
:1082A00009C6050009C6050009C6050009C605007E
:1082B00009C6050009C6050009C6050009C605006E
:1082C00009C6050009C6050009C6050009C605005E
:1082D00009C6050009C6050009C6050009C605004E
:1082E00009C6050009C6050009C6050009C605003E
:1082F00009C6050009C6050009C6050009C605002E
:1083000009C6050009C6050009C6050009C605001D
:1083100009C6050009C6050009C6050009C605000D
:1083200009C6050009C6050009C6050009C60500FD
:1083300009C6050009C6050009C6050009C60500ED
:1083400009C6050009C6050009C6050009C60500DD
:1083500009C6050009C6050009C6050009C60500CD
:1083600009C6050009C6050009C6050009C60500BD
:1083700009C6050009C6050009C6050009C60500AD
:1083800009C6050009C6050009C6050009C605009D
:1083900009C6050009C6050009C6050009C605008D
:1083A00009C6050009C6050009C6050009C605007D
:1083B00009C6050009C6050009C6050009C605006D
:1083C00009C6050009C6050009C6050009C605005D
:1083D00009C605001188060009C6050009C6050082
:1083E00009C6050009C6050009C6050009C605003D
:1083F00009C6050009C6050009C6050009C605002D
:1084000009C6050009C6050009C6050009C605001C
:1084100009C6050009C6050009C6050009C605000C
:1084200009C6050009C6050009C6050009C60500FC
:1084300009C6050009C6050009C6050009C60500EC
:1084400009C6050009C6050009C6050009C60500DC
:1084500009C6050009C6050009C6050009C60500CC
:1084600009C6050009C6050009C6050009C60500BC
:0C84700009C6050009C6050009C6050084
:10848000054B00221B78826001330260034A426080
:10849000C371FF2303727047A03B0120280108002D
:1084A000064A074B02604FF418729B7882800822BC
:1084B000C371002382710372704700BF97AF05003C
:1084C000A03B01202DE9F341C41D0028064624F0FD
:1084D00007040CBF0020204600F010FD071E04DA40
:1084E0006FF00B0002B0BDE8F081374DE988A88835
:1084F00003316B7A03302A7A89B280B20FF070FBB5
:108500000028EDDB3C44A978EB78002E04F103044D
:10851000194424F0030400FB01F10CBF00202046A5
:1085200000F072FE20440EB90028D9DBEA7A044636
:10853000B2B1EB7B697C13441944FF29D0D80330D6
:10854000002EAA89C9B220F003040CBF00202046E7
:1085500000F0CCFE0028C3DB04440EB9002CBFDBC6
:10856000012000F0C1FCB0B1A97BA1B195F82B307E
:1085700033B340234FF481720734002E24F00704F4
:108580000CBF0020204604F041F80028A8DB04447A
:108590000EB9002CA4DBAB7AFBB1EB7AB3B1073494
:1085A000002EA97A24F007040CBF0020204607F013
:1085B0008BFE002894DB04447EB9002C0DDA8FE793
:1085C00025232822D8E700BFA03B0120012000F08E
:1085D0008BFC10B1AB7B002BE1D1734B1B6893B1CB
:1085E000A97D81B10334002EEA7D24F003040CBF81
:1085F0000020204698470028FFF672AF044416B9C1
:10860000002CFFF66DAF694B1B688BB1297C79B1EB
:108610000334002E24F003040CBF002020469847AA
:108620000028FFF65DAF044416B9002CFFF658AFE2
:108630005F4B1F68B7B1697CA1B10334002E2B7D5D
:1086400024F0030408BF0020009318BF2046EB7CF1
:10865000AA7CB8470028FFF643AF044416B9002CA3
:10866000FFF63EAF072000F03FFC98B1A97D89B12D
:108670000334002E2A7E24F003040CBF0020204681
:1086800000F00AFF0028FFF62BAF044416B9002CB7
:10869000FFF626AFB6FA86F795F823007F09A0B15A
:1086A00003346B7FA97E24F0070419443B4644F051
:1086B0000404C9B2224600F02FFF0028FFF610AFD5
:1086C000044416B9002CFFF60BAF95F824100029CE
:1086D0004CD004F10708002EEA8C28F007080CBFE4
:1086E000002040460FF090FA041EFFF6F9AE444415
:1086F000002E3ED1002CFFF6F3AEA97F002945D015
:1087000095F82230002B41D02A8C0734002E02F13C
:10871000240224F007080CBF0020404692B20FF05C
:1087200073FA0028FFF6DCAE404416B90028FFF6C5
:10873000D7AE03302B7FA97E20F0070019443B46BB
:1087400040F0040495F82200C9B2224600F0D6FE9B
:108750000028FFF6C5AE044486B9002CFFF6C0AE73
:10876000EB6AF3B1C6B1EC620020BBE6002EC4D0C8
:108770008846E98C40460BF091FCBEE72A8C4046C7
:10878000A97F083292B20BF08FFCE9E7002EE7D008
:10879000002211461046F6E728343FF5A1AE2046E8
:1087A000A0E6002EE0D1FAE76C3001207030012005
:1087B000743001201FB572B6194B1C6BECB9BFF3B6
:1087C0004F8F1849184BCA6802F4E0621343CB601C
:1087D000BFF34F8F00BFFDE7B2FBF6F22B465D1CE7
:1087E000002AF9D1DBB203F110056D4405F80C2C19
:1087F0000A2233B901A8A047E1E7024600230A266E
:10880000EDE7013BDBB203F110050DEB0506B0FB14
:10881000F2F502FB1500303006F80C0C2846E8E7AC
:10882000A03B012000ED00E00400FA0513B5124C56
:1088300068462389ADF80030E388ADF80430A3889A
:10884000ADF8023005F04EFF18B1FC219C20FFF777
:10885000B1FF207D05F0AAFF08B1FF21F6E7E07C1B
:1088600005F09EFF10B14FF48071EFE794F82900F6
:1088700009F0C2FF02B010BDA03B012070B5054653
:1088800000285BD00EF0ACF818B94FF0FF3420464A
:1088900070BD0DF03BFFB0F5FA7FF6D8294C0126EC
:1088A00029482563002500F09BFA284684F83450B7
:1088B000257084F82B50E56284F82A500BF090FB69
:1088C0001A22294604F10F0012F0E2FD1B230821B1
:1088D0000322A3802846E3800223A1721F21637232
:1088E000E375F72322722384FB23A2734922E384D6
:1088F0000A23A1812946E27484F82930A670E67023
:10890000E672A674267604F023FE2A4631463046E7
:1089100004F0D2FD044620B140F2AD319C20FFF7B7
:1089200049FF0246014604F0F5FDEFF3108572B6EB
:1089300000F018FE002DAAD162B6A8E76FF015046A
:10894000A5E700BFA03B01202D88040038B51446E0
:10895000002840F0EE80784D95F83430032B00F07D
:10896000E58019B312B96FF0150038BD0139172928
:1089700000F2DF80DFE811F0180029002C0042002F
:108980006C0075009400480078007B008E004E005B
:108990005400620067009A009D00AC00AF00B20076
:1089A000A300B500B900D2001378AB700020FFF728
:1089B00089FD0028B7BF012302236FF00B0085F863
:1089C0003430A8BF85F83430CFE71378EB70EDE78B
:1089D0001379002BC7D05379002BC4D01288FB2AFF
:1089E000C1D863881B3B9BB2E02BBCD81A2ABAD9EA
:1089F0002368A2886B60514B9A80D7E71378EA7B93
:108A00009342B0D3EB72D1E71378EA7A9342AAD8B3
:108A1000EB73CBE71378EA7A9342A4D86B74C5E77B
:108A20001378002B9FD05378013BDBB2F82B9AD8F8
:108A3000138892786B82424B9A70B7E7107868750A
:108A400009F0D4FEB2E71378002B8CD02B76ADE77B
:108A5000012000F049FA237808B1012B83D9AB73C8
:108A6000A4E71388AB81A1E71378AB759EE70720D5
:108A700000F03AFA18B92378012B7FF674AF07207B
:108A800000F032FA18B12378002B3FF46CAF237852
:108A9000EB758BE71378082B3FF665AF2B7485E7F2
:108AA0001388FF2B3FF65FAFAB727FE713786B76CF
:108AB0007CE713780E2B3FF656AFAB7676E723684C
:108AC000204AC5F81E3063685360238913816DE71F
:108AD0001378EB766AE713786B7767E713782B7771
:108AE00064E7137885F8283060E704F0DFFC98B17C
:108AF000007900F001026178207804F0DDFC0028A4
:108B00007FF433AF6378012B7FF650AF0BF06EFA32
:108B100000287FF44BAF26E70246ECE713785A1E95
:108B2000092A3FF620AF85F829303FE74FF0FF30A4
:108B30001BE76FF02C0018E7A03B0120A43B0120AD
:108B4000B23B0120BE3B0120F8B50D46064630B3CE
:108B500029B311F0070422D1124F97F83430012BBA
:108B600002D16FF00B00F8BD032B02D14FF0FF30A4
:108B7000F9E700F065F80028F8D02846FFF7A2FCD6
:108B80000028EEDB12F0C4FA3046F96A05F080FEE8
:108B9000FFF74CFE0323204687F83430E3E76FF0FD
:108BA0001500E0E7A03B012010B5074C94F83430E5
:108BB000032B03D105F088FE06F0FAFC0FF0A9F8AC
:108BC000002084F8340010BDA03B012050B1074BB9
:108BD00003F1140253F8041B934240F8041BF9D12B
:108BE000002070476FF01500704700BFCEB406003C
:108BF00008B5094B93F82B305BB105F027FE074908
:108C0000012000F069F906490020BDE8084000F0A5
:108C100063B905F0FDFDF2E7A03B0120818404006B
:108C2000A184040002680020014B1A60704700BF55
:108C3000D83B0120014B1B68184700BFD83B0120DF
:108C4000024B1868003818BF01207047D83B01203C
:108C5000F7B504462D4E071D2C48376006F0C0FCC2
:108C60000228054606D1294920460EF051F928462A
:108C700003B0F0BD042842D13378092B0AD0262B4B
:108C80001ED0314620460EF0BDF9B0F5817F2DD3C0
:108C9000722112E005213E200EF00CF90028F0D1DF
:108CA000F37801A93279684643EA0223ADF800302F
:108CB0000EF086FD0028CFD053210820FFF77AFD63
:108CC0001A213E200EF0F6F80028DAD173686946C2
:108CD00001A8C3F30F23ADF8043011238DF806303B
:108CE0000EF07AFD0028B7D06521E6E70028B3D062
:108CF000A17820780EF0DEF80028B8D1ACE708287B
:108D0000B5D1024920460EF03BF9B0E7DC3B01202B
:108D1000074B4FF0FF3141F6FF72C3E900120549DE
:108D20000022C1E900221F21C3E90212704700BFDF
:108D300000300120E03C01203F280CD801380B4BCB
:108D4000C0F3421200F01F0053F8223023FA00F063
:108D500000F001007047FF2806D04038044BC0F3F4
:108D6000421200F01F00EFE70120704700300120A1
:108D7000E03C0120074B0146006849681A4603C2DF
:108D800040F48C221A6041F0107242F4FF625A6083
:108D9000704700BF003001200246024B0068516856
:108DA00003C37047E03C01200246024B0068516853
:108DB00003C3704708300120431EF428DBB201D101
:108DC00004F0BEBB5909054A03F01F0302EB810200
:108DD0009068D84000F00100704700BF00300120CB
:108DE000014B1860704700BFE83C012010B5FFF749
:108DF0008FFF10F0F6F8034B04461B6803B1984749
:108E0000204610BDE83C01200A8870B595B2C67CAA
:108E1000C2F30E020488023602F118033444C35A26
:108E2000A4B233442344013BB3FBF4F303FB042219
:108E3000438892B29342044B8BBF2B40AB43134306
:108E40009BB20B8070BD00BF0080FFFF4A1E062A48
:108E500008B50346084604D84FF4D1711520FFF732
:108E6000A9FC094A914202D940F2A311F6E711B9CF
:108E700003B1196008BD2BB11B680022C3E90121B1
:108E80001A1D1A600430F5E7FAFFFF7F10B5114B89
:108E900000EB41041A786389B3FBF2F303FB02236E
:108EA000013A1A44B2F5706F0279807828BF002326
:108EB0001A440B18B2FBF0F100FB11215B1AB3FB53
:108EC000F0F100FB113313446FEA43436FEA53435D
:108ED000638110BDEC3C0120024B03EB8003596021
:108EE000704700BFEC3C0120034B03EB8003586844
:108EF000003818BF01207047EC3C01202DE9F04FED
:108F000010F0070A85B0054604D040F26111172021
:108F1000FFF750FC534F04464FF0010B07F1540686
:108F2000B146B04657F8043B8DF80BA03BB101A801
:108F300098479DF80A30082B01D9E821E7E79DF80A
:108F40000B1041BB05B131604F4506F10406E9D174
:108F5000002D6ED00022DFF810911427964689F874
:108F6000002058F827A0013FBAF1000F54D09AF81A
:108F700004609AF802C0FF2E5FD039460023481CD7
:108F800037D19C44BCF1FF0F3ED90AB189F800E00B
:108F900040F22711BBE79DF80AC04B1D60465A00FE
:108FA00004EB4303022838BF0220441E40422344FE
:108FB000BDF808406444CCF1000C0340013C04EAD5
:108FC0000C04B4F5803F01D3F821A0E775B19A1ADB
:108FD00032609170148082F803B09DF80C0010711B
:108FE00001984FEA104C1081A2F806C004FB01342E
:108FF000AAE758F8210028B190F804B0B34504BF9F
:1090000080781B180139BAE7DBB2E6458AF80430EC
:109010003CBF5FFA8CFE01227B1CA2D10AB189F809
:1090200000E0142640F6FF6A58F82670B7B9013EF2
:10903000FAD2601B05B0BDE8F08F0023E5E707EB2F
:10904000410309F101093846A3F80AA0FFF71EFF02
:109050005FFA89F1BB788B42F1D8E8E74FF000095D
:10906000F6E700BFF03C0120EC3C012038B54FF69C
:10907000FF7302460380184B03EB8103986DA8B180
:1090800084780379B3FBF4F104FB1133DBB21946A6
:1090900000EB4105B5F90A50002D0EDB0131B1FBA3
:1090A000F4F504FB1511C9B28B42F1D1002038BD93
:1090B0006381BDE838400EF06FBD00EB4104638969
:1090C000C3F30E031380C278002AF1D14FF4D57197
:1090D0001720FFF76FFB00BFEC3C01201C4B03EB9C
:1090E000810370B59C6D054644B3030404D54FF469
:1090F000DC711720FFF75EFB014620460EF02FFDC6
:10910000FF28014604D02046BDE870400EF044BD63
:10911000A078B5FBF0F300FB1353DBB219460A1D30
:1091200004EB4206B6F90260002E09DB0131B1FB07
:10913000F0F200FB1211C9B28B42F0D1002070BDD9
:109140008B4201D00023E37004EB42025580DAE742
:10915000EC3C0120094B03EB8103014610B59C6DEB
:1091600020460EF0FCFCFF28014604D02046BDE856
:1091700010400EF011BD002010BD00BFEC3C0120DE
:10918000F8B5104B074603EB810301469C6D204662
:109190000EF0E5FCFF28054611D0E288238953EA4A
:1091A000024606D0014620460EF0F6FC014638463F
:1091B000B04720462946FFF769FE0020F8BD05208C
:1091C000FCE700BFEC3C012038B50E4B0446827929
:1091D00003EB8203986D08B9052038BD8278E179E8
:1091E0009142F9D24B1CE37100EB41035D89B3F965
:1091F0000A30002BF3DBA5800EF0CEFC20600020AF
:10920000EBE700BFEC3C012070B5044610F0030012
:109210000E4603D04E211820FFF7CCFAFFF716FEBA
:10922000054624B1034831460460FFF70FFE284687
:1092300070BD00BF983D01202DE9F14FDFF870B0FF
:109240001E4607460D46DBF8003090469DF828A0E4
:109250009DF82C901BB960211820FFF7ABFA5246FD
:10926000092140460EF0FBFA4A4684B209213046F5
:109270000EF0F5FA81B2DBF8000021440EF043FC59
:10928000386018B9286001B0BDE8F08F0444534637
:10929000414609222C6038680EF0A4FA4B46092298
:1092A0003146286801B0BDE8F04F0EF09BBA00BF10
:1092B000983D012070B50E4604460EF0E3FA0546CF
:1092C00030460EF0DFFA044B2A1821461868BDE834
:1092D00070400EF03DBC00BF983D0120024B186865
:1092E00008B10EF004BC7047983D01201F2AF8B564
:1092F000044613460ED89200033222F00303B3F55E
:10930000803F2DD2184DACB1A00710D05F210920AD
:10931000FFF750FAFF2B4FEA420204D9FF339A427B
:10932000A8BF1A46E8E77C2AB8BF7C22E4E7297088
:109330006C602B8122F0030228230127120403FB17
:1093400001F06B680025120CEEB2B14200D8F8BDF6
:1093500014B126181F705E60104401352833F3E7FE
:109360004FF0FF30F3E700BF9C3D0120154A00217C
:1093700070B553681578C8B2854203D8AB2109206F
:10938000FFF718FA1C461846013114F8286B0EB97D
:109390002346F0E70021997001241289996103F1B5
:1093A00026055C709208D96103F11E04596824F8FF
:1093B000022FA54243F8041F1144F8D10023436152
:1093C000037070BD9C3D01204B782DE9F0410646AD
:1093D0000C4602F0040702F0FB05E3B1A5BBFF2336
:1093E000A3707B0804EB57073A7D032A02D1022DB4
:1093F00018BF0133E2180121117503F10C0100229D
:1094000004EB830324F811205B68A27030463360BC
:10941000B280BDE8F081002DE1D1012301F11E02EF
:109420008D6120464B7004F1260C1A4BCD611B89CF
:1094300049689B0822F8023F944540F8041F1944EC
:10944000F8D100236361CAE7D1F804801422002117
:10945000A018617012F01CF80E4B1B89B3F5FF7F4A
:109460000FD25A089B1A9BB208EB0301C4F8048080
:109470002384A1606284C4F80C80A3842161E28407
:10948000ADE7B3F5EE6F4FF0FF02EBD940F2726338
:10949000EAE700BF9C3D01202DE9F84305460C4654
:1094A000F720052191460EF0DAF9061E21DB1DB9E1
:1094B00006FB04F0BDE8F88315F0030703D09821FC
:1094C0001920FFF777F9DFF83080C8F81050A8F8B6
:1094D0001460BBB29C42EBD9B8F814504B46D8F894
:1094E00010000522F72107FB050001370EF07AF97D
:1094F000EFE74FF0FF30DDE7B03D012007B5CDE9E4
:1095000000230B4603490246081D0EF0DCFB03B0A6
:109510005DF804FBC83D012013B5064CCDE90023DE
:109520000B46024604F1080104F10C000EF0CBFBDF
:1095300002B010BDC83D012008B54B1E032B03D956
:1095400023219020FFF736F90028054A0CBF052398
:109550000C2303EB8103053323F00103137008BDD3
:10956000D83D01201F4B4FF0FF3000211A68012326
:109570005360C2F80803C2F80015C2F804351A4A4D
:1095800012685360C2F80803C2F8001540F6FE7175
:10959000164A1748C2F80815B0F90020002A0CDB5B
:1095A000510902F01F02934001F12002114941F8D4
:1095B0002230BFF34F8FBFF36F8FB0F90030002B15
:1095C00009DB5A09012103F01F03994002F16003EE
:1095D000084A42F82310054B40F6FE72C3F80825EE
:1095E000704700BF884901208449012000200840BD
:1095F0009849012000E100E00A4606483D2302F8B0
:10960000033BC368C1F80330036953604369936047
:10961000704700BFE03D0120024B5A8C02435A8440
:109620005B6A1847E03D0120014B00215B6A184747
:10963000E03D012010B5154C0AF0E0F809F044FBBC
:10964000208DFFF7F1FF237E63B12246104904F11C
:10965000190052F80C3BE36063685360A3689360A1
:1096600010F065FE0B4B228D93E8030006F05CFEC4
:10967000236B188806F0DEFDA36B94F8341094F881
:1096800035009847002384F83C3010BDE03D0120B0
:10969000F99504000C3E0120034B93F83C300BB1CC
:1096A000FFF7C8BF704700BFE03D012070B5254CF3
:1096B0000646256B636C95F89420236494F8483033
:1096C00095F8751003EB82002EB9FF2803D195F8A9
:1096D00074308B4201D009F00DFF95F8943053B3EC
:1096E000E06C0AF06DF994F82C30E16C003B206CD2
:1096F00018BF012384F87030D5E93C23C4E918234E
:1097000009F066FA5EB995F87530033B012B2B8F93
:109710008CBF00202820184480B20AF0B1F9A88E2E
:1097200009F05AFE95F8741000200AF0F1F90223AE
:1097300084F83C3070BD206C0AF042F909F0C4FA9C
:10974000E0E700BFE03D01200138C0B2032808B5C2
:1097500004D940F29D410620FFF72CF8014B185C1C
:1097600008BD00BF17A3060008B5094B93F83C20BD
:10977000022A04D040F24F212720FFF71BF8DA7AA3
:1097800042F00102DA72BDE80840FFF753BF00BFA4
:10979000E03D012003280B4B10B5044605D19A6F1C
:1097A000D278022A01D1002010BDD86F0EF0E9F85E
:1097B0000028F9D1032CF6D005F00CFA80F0010056
:1097C000C0B2F1E7E03D012038B52F4C054694F8D2
:1097D0002C307BB101280DD1638C18070AD5A26FFC
:1097E000137803F00303032B04D1D378022B01D1A8
:1097F000012038BD0129FBD8D4F88030284698478D
:109800000028F5D094F834000028F1D194F82C30D9
:109810001BB9012D03D01846EBE7002DE9D194F8D0
:10982000845025B194F88500FFF7B4FF0546606CBD
:1098300010F0FDFCD4F88830ABB9B4F88C30B3FA32
:1098400083F35B0994F82C10628C71B191070CD5ED
:10985000A26F137803F00303032BC9D1D078023829
:1098600018BF0120C5E70123ECE7002AC0D1012879
:1098700014BF002303F0010343EA050080F0010058
:1098800000F00100B5E700BFE03D01202DE9F04305
:10989000334C85B00746884694F83C30012BDEB245
:1098A00004D040F204512720FEF784FF256B02A864
:1098B000A16F0EF030FA95F884309DF8089053B1FE
:1098C0000021042085F88410FFF7A6FE94F82C30C0
:1098D0000BB185F88660B9F1030F29D0BDF80C30C3
:1098E000002B18BF022695F8943085F88A60CBB11A
:1098F00094F82C30216B003B94F8486091F8750087
:1099000018BF012384F87030D5E93C23C4E918233B
:10991000FFF71AFF00220346124900920220324646
:1099200009F084F86FB105B0BDE8F043FFF782BEDF
:1099300095F88A301BB9A16F0220FFF76DFE032650
:10994000D1E7B8F1000FEED039463846FFF73CFFBB
:109950000028E8D105B0BDE8F043FFF7A7BE00BF7F
:10996000E03D0120303E012010B5094CD4F888308C
:1099700023B940F2F6412720FEF71CFFB4F88C20F3
:109980001846216C03320DF0CDF9206410BD00BFE4
:10999000E03D01202DE9F341714C0023256B8DF84A
:1099A000053095F8741058B995F8942094F848301B
:1099B00003EB8203FF2B03D195F875308B4202D065
:1099C000FF2009F097FD95F88A30032B00F2BB8049
:1099D000DFE803F0023598AB94F88E306148ADF8BB
:1099E0000630A5F8643005F0CBF858B10121A36F1B
:1099F00085F88510DB781B2B1DD105F1100009F0CF
:109A0000C5FD18E00DF105020DF10601E06F0DF046
:109A100060FFA06798B195F8CF3083B99DF8053005
:109A20002BB9038001218370A06F10F0F0FBA36FAE
:109A3000BDF806205A70012384F88F3001E04A4BAC
:109A4000A367A76F95F88B203B78D20003F003063D
:109A500003F0F30302F008023046134395F88C201C
:109A6000920002F0040213433B70FFF793FE3B7831
:109A700023F0100343EA00133B70A06F90F80180BD
:109A800010F0D9FB95F89330071E18BF0127002B63
:109A90005CD0B8F1000F59D0E06C09F091FF94F858
:109AA0002C30E16CB3FA83F3A06F5B0984F870305B
:109AB000D5E93A23C4E918233A460AF0C1F918B99E
:109AC000A16FE06C09F018F830460EF051F9E88EFD
:109AD00009F082FC95F87510012001250AF018F8AC
:109AE000A06F84F8935010F0A2FBA36F84F8840059
:109AF0001B7884F83C5003F0030384F8853002B0EF
:109B0000BDE8F081B5F864300DF105020DF10601F4
:109B1000E06FADF806300DF0DCFEA06700288AD1BA
:109B200040F2F1212720FEF745FE0E4805F028F807
:109B300010B940F2FB21F5E7A36FDB781B2B7FF414
:109B40007AAF012159E740F20931EBE7A06F09F044
:109B500037FF09F0B9F83946A06F11F002FBB3E7FF
:109B6000E03D0120583E0120703E0120064B10B51B
:109B700093F83C2002F0FF0422B91C7606F0CCFBDF
:109B8000204610BD0C24FBE7E03D01200A4B0B4AA8
:109B900070B506460D461A60FFF7E8FF18B1F421CC
:109BA0002720FEF707FE064C012104F1900010F07B
:109BB0002EFB6664E56470BD783001200CA30400C0
:109BC000E03D0120024B012283F89420704700BF42
:109BD000E03D0120F0B585B09A4C02AE0A9F86E8C0
:109BE000030094F83C1001F0FF0511B90AB103B16C
:109BF00027B940F283112720FEF7DCFD96E8030029
:109C000004F12C0C84F8945084F8345084F8955066
:109C100084F8355084F8935084F88F5065842585F6
:109C20006262C4F88030A7638CE80300256B09F0FA
:109C3000CFFC09F049F895F97C0009F02FFDAE6AD8
:109C4000286A09F031FD304609F09EFE95F8A4001F
:109C500009F034FD94F82C60002E40F0A78010F03D
:109C6000A2FF95F87420784B4FF47A7153F82230A4
:109C700003F5FA73B3FBF1F354331918304609F0C6
:109C8000A9FD724B724E05F58477186809F082FEC3
:109C90006B69E367AB69C4F8983005F1F80318689D
:109CA000083353F8041C3246BB4203C21646F6D1B1
:109CB0005968684AD5F8080103C2226B92F88E30C1
:109CC00092F87460A3F12601012903D992F88F104C
:109CD000262976D194F82C30002B6FD192F80A12F5
:109CE00030460EF035F8064605F13C073146384659
:109CF00010F0A1FB31460FF0C6FFB5F8483095F8DB
:109D00007510834228BF0346384684F88E3010F021
:109D100047FB95F8751095F894700429B5F85060D4
:109D200008BF03210FF0AFFF0FB9043080B28642A5
:109D300028BF0646F6B284F89C6005F019FD28B1EC
:109D400005F01CFDB04238BF3046C6B294F82C7006
:109D500084F84860002F5AD195F893308BB10123D5
:109D600095F8740084F87030D5E93A23C4E91823D3
:109D7000FFF7EAFCFB22034635490420009708F070
:109D800055FE0120FFF706FE002323606360A360F9
:109D9000B5F8883063802B88238095F8A430237130
:109DA000AB6F0BB101221A6005B0F0BD10F0FBFEE5
:109DB00095F8752000F17601012060E792F8A21273
:109DC0008EE7213B012B11D8242911D094F82C3097
:109DD000CBB192F82E315A0713D413F001017FF45E
:109DE0007FAFC3F340035B00D9B279E724290AD1DE
:109DF00094F82C303BB192F82E3192F86D2013403C
:109E0000E9E704216CE7032E08BF04266CE795F808
:109E1000943093B1012395F8750084F87030D5E93A
:109E20003C23C4E91823FFF78FFC002203460849AE
:109E300000920220324608F0F9FD0120FFF736FCBF
:109E4000A2E700BFE03D012058A6060078300120BF
:109E5000303E0120483E012008B5114B93F83C20CC
:109E60001AB9BDE80840FFF7E5BB93F82C2042B9CA
:109E700093F83C30012B12D040F22D212720FEF721
:109E800099FC93F83C20022A02D040F23121F5E7F8
:109E90001B6BD3F8D801BDE8084009F0C5BD08BD6B
:109EA000E03D0120014B1876704700BFE03D0120E6
:109EB0002DE9F043314D85B004460F4602A8296CC8
:109EC0002E6B0DF028FF14F00109BDF80C8004F092
:109ED000020428D0002385F89D3094B1FFF744FD9B
:109EE0000DF1020201A9D5F898000DF0F6FD0198D8
:109EF0000DF0D9FD012238604146D5F898000DF0EB
:109F000081FDB9F1000F0BD0D6E93C32013342F1AB
:109F10000002C6E93C3296F88C30013386F88C306A
:109F200005B0BDE8F08395F89D30032B20D801A241
:109F300052F823F0DB9E0400459F04005F9F04005D
:109F40005F9F0400002CEBD0FFF70EFD002241467E
:109F5000D5F8980005B0BDE8F0430DF053BD002CD6
:109F6000DED0D5F8980005B0BDE8F0430DF0B1BDE6
:109F700040F2A2412720FEF71DFC00BFE03D01207A
:109F80002DE9F04F0023B74C87B080468A46276BF7
:109F9000CDE9023394F83C30022B04D040F28B51CF
:109FA0002720FEF707FC216C04A80DF0B4FEBDF8D5
:109FB000146097F89430B8F1000F00F059819DF8C3
:109FC00010909DF811B0002B3AD008F08BFEB8BB72
:109FD0006EB197F88C3003F001035B450BD1012380
:109FE00084F83530FFF726FB07B0BDE8F08FA4F802
:109FF0008C60002006E0A4F88C603146D4F898000C
:10A000000DF0E0FC238D9DF8122043F40073C4F89A
:10A010008800238597F88B3003F001039A4200F003
:10A02000C880256B95F88A30002B3FD0022B13D1C6
:10A0300002A9E06F0DF06FFC38B940F23B41AFE789
:10A04000A4F88C60002ED4D0D7E7D5E93A3201339A
:10A0500042F10002C5E93A32002194F82C3085F82B
:10A060008A103BB195F8863023B1102085F8861010
:10A07000FFF7D2FA95F885309BB1002185F885105D
:10A0800004F090FD002110B940F2524188E7082009
:10A09000FFF7C2FAD5E93A32013342F10002C5E9CD
:10A0A0003A3295F88B30013385F88B30238D0025BB
:10A0B00043F40063238597F88C3003F001035B457C
:10A0C00079D0002648464FF000090DF051FE97F870
:10A0D0009330B3B194F82C3097F87400B3FA83F34B
:10A0E0005B0984F87030D7E93A23C4E91823FFF7F5
:10A0F0002BFB002203465C4900920420FB2208F05F
:10A1000095FCBAF1000F00F0DE8009F037FD002E5B
:10A1100040F0F1804FF00109238D5A0606D440200B
:10A12000FFF782FA238D43F04003238585B194F82D
:10A130002C3043B1B4F80720B4F805301343B7F816
:10A140008820134304D0B4F809300133A4F809304F
:10A15000B8F1000F00F0D480B4F805300133A4F852
:10A160000530002384F89530404806F051F80298F5
:10A1700030B10DF098FC216B0022027205F074FAE8
:10A18000039B33B1216B00221A720C22039805F055
:10A1900039FAB9F1000F7FF425AF238D1B063FF587
:10A1A00023AF8020FFF740FA238D43F080032385FF
:10A1B0001AE745467FE7B9F1020FD4F830B012D85C
:10A1C000B9F1000F1DD19BF88C3001338BF88C3026
:10A1D000002E3FF476AFDBE93C32013342F100025E
:10A1E000CBE93C326DE7B9F1030FECD1238D0120AF
:10A1F000216C43F480538BF884002385FFF70CFA1D
:10A20000E1E7002EDFD0238D9BF894B043F4805318
:10A21000238509F0EFF8042894F89C3007D1BBF1AE
:10A22000000F0CBF1F221B22934228BF13469E42E1
:10A230000BD8D4F88830002B3FF443AF94F8943017
:10A240006BB12020FFF7F0F93BE794F834300120A0
:10A2500043F0100384F834300BF0DEFA31E7464661
:10A2600030E700BFE03D0120303E01200C3E0120E0
:10A270000BB108F04BFD94F89530013384F895301C
:10A28000238D43F48063238597F87530033B012BBE
:10A2900011D801200BF0C0FA09F0ACF8011FD1F180
:10A2A000000949EB01091B2E4FF0000698BF4FF043
:10A2B000000935460BE705F05BFA81460028E8D136
:10A2C0000646054603E794F895100120FFF77CFA4F
:10A2D00000287FF41AAF1EB103A90120FFF7E8FDA3
:10A2E0000020FFF757FB002E3FF416AF03A9022012
:10A2F000FFF7DEFD10E703A90320FFF7D9FD09E70B
:10A30000B4F807300133A4F807302DE7699704004B
:10A31000819F04008D980400999604000D4B032141
:10A32000186830B50D4690F8A52090F84B400132E2
:10A33000B2FBF5F303EB4303D31ADAB244FA03F3A7
:10A34000DB0703D4013911F0FF01F0D180F8A5201B
:10A3500030BD00BF803E0120014B18680DF0D9BD13
:10A36000803E012008B504F0D5FE014B187008BDF1
:10A3700010300120054B10B41C68827C836804F106
:10A38000420194F8410010BC0FF04DBB803E01200B
:10A390002DE9F041054617461E460C4619B1AB683B
:10A3A00053BB01201FE0DFF86080D8F8000000F107
:10A3B0005B0390F85A2000F1780190F87E000FF0CE
:10A3C00032FBD8F804305A79D8F80030082A04D083
:10A3D00093F84E40A21A5442544193F85630012B40
:10A3E000DDD023B1002000F00100BDE8F08100289D
:10A3F000D5D1002CD3D1F5E7002FD2D1002EF1D04A
:10A400002846FFF7B7FFEEE7803E0120024B1868B1
:10A410006C3002F063B900BF803E012038B50F4CAC
:10A42000FFF7F4FF656802F013F9636828601868A5
:10A4300020B940F2EC413220FEF7BCF90DF04FFF9D
:10A4400010B940F2EE41F6E709F0BAFA002009F03F
:10A4500017FB636804221A7138BD00BF803E0120DB
:10A4600038B5194D04466B681B79022B04D940F6A8
:10A47000F9013220FEF79EF92B68027C83F8A420B4
:10A480001A44C168996692F8242183F82021426811
:10A49000C3F88820037A022B0ED009F099F809F04E
:10A4A0001DFB08F027FA094809F074FA084809F07A
:10A4B0006BFA084809F0F8F8637C23B12B685B6EEF
:10A4C0000BB101221A6038BD803E0120843001208A
:10A4D00055555500D6BE898E38B505460C4604F054
:10A4E0005BFA420704D4A37803F0E003402B30D09A
:10A4F00004F052FA830704D4A37803F0E003202B7E
:10A5000027D0237803F03F03242B22D808F078FFCC
:10A5100094F90030A278002B637802F01F02B4BFD8
:10A520004FF496711E2143EA02234B431A1AB2F5E7
:10A53000877F0ED398420CD8074B2946186823888A
:10A54000A0F82131A37880F82331BDE838400EF01F
:10A55000C0B9002038BD00BF803E012008B5074BC0
:10A5600093F900207F2A04D140F292313220FEF785
:10A5700021F902707F221A7008BD00BF103001203F
:10A5800010B504788EB004F00F0404A922460DF033
:10A59000E5FEFFF7E7FE042C33D11B4C059A236838
:10A5A000107893F8781088422BD1507893F879106E
:10A5B000884226D1907893F87A10884221D1D078B9
:10A5C00093F87B1088421CD1107993F87C10884254
:10A5D00017D1517993F87D20914212D19DF8212015
:10A5E00093F87E309A420CD10DF10F00FFF7B6FFC1
:10A5F0009DF90F3004A90093237B227A60680DF047
:10A6000080FE03200EB010BD803E01202DE9F043F6
:10A6100087B0194C06460F460DF11700FFF79EFF55
:10A6200065682B79032B20D02B79062B14BF4FF0B4
:10A6300001094FF00309236803F1420808F0DAFE2C
:10A640009DF917303A46CDF80C9031460293237AA3
:10A65000CDE900034346284602F0C0F840B16068E7
:10A6600007B0BDE8F04302F055B84FF00009E2E74B
:10A6700007B0BDE8F08300BF803E01202DE9F04324
:10A68000304D87B004460F466E68B3798BB3D5F86A
:10A69000008098F8953033B90378002B14BF02235B
:10A6A000012388F895303379062BDAB225D0072AB2
:10A6B0000CBF4FF002094FF001090DF11700FFF731
:10A6C0004DFF08F097FE9DF91730CDF80C903A46F3
:10A6D000029321462B7ACDE9000308F1420330466C
:10A6E00002F07CF828B16378DB0609D4686802F0D0
:10A6F00011F8002007B0BDE8F0834FF00309DCE754
:10A70000A1690220FFF7E8FEB8B100222B6883F8A8
:10A71000962062696AB15178C1F3031183F89710EA
:10A720001178527802F00F0241EA0222A3F8982031
:10A73000E0E7FF2283F89720DCE7686802F01AF868
:10A74000D7E700BF803E012010B504468AB0FFF76E
:10A7500009FE237803F00F03072B02D001200AB073
:10A7600010BD694620460DF08CFE68460DF031FFA5
:10A770009DF80030002BF1D19DF80130DB07EDD5BD
:10A780000C4C019922689DF8110002F1780392F8AF
:10A790007E200FF048F90028E0D020680121A03089
:10A7A0000EF096FFFF216846FFF768FF0130C0B248
:10A7B000D5E700BF803E01200D4A536810B51979D6
:10A7C000022904D841F2A6413220FDF7F3FF19799E
:10A7D000082902D941F2A741F6E71B79126903F172
:10A7E00080439268033BBDE8104052F8233018477D
:10A7F000803E012010B5054C637A2BB109F06EF94B
:10A8000008F078F80023637210BD00BF803E01207D
:10A8100010B5054C23792BB109F060F908F06AF8FE
:10A820000023237110BD00BFD845012010B5094C8D
:10A83000FFF7E0FF012263681A7100232268A2F883
:10A84000213182F82331FFF7E1FD2068BDE8104097
:10A850000EF00CBA803E012008B5044B586801F098
:10A8600089FFBDE808400DF061BB00BF803E0120BC
:10A87000062938B51D469DF8104019D908291BD85E
:10A8800002B18CB143689BB912B94378DB0615D489
:10A890000B4B5B6818680DF043FD00B134B92DB95E
:10A8A00004F0E4FA00F00104204638BD0120F9E785
:10A8B0009DF814402C43F7E70024F5E70124F3E763
:10A8C000803E012038B50D1E04460CBF0520032034
:10A8D000104404F03BFB094B587270B15DB9033C66
:10A8E000012C8CBF5024552407F0D8FF2046BDE82A
:10A8F000384009F0E7B84024F6E738BD803E012033
:10A90000F8B53D4CFFF782FD656801F0A1FE636874
:10A910002860186820B940F249413220FDF74AFF0B
:10A920000DF0DDFC054610B940F24B41F5E7236818
:10A9300093F8A6306BB123681A6D93F8A710C3F88B
:10A94000102193F854200A4383F85420002283F8FE
:10A95000A620206890F8A430034493F8247163681B
:10A9600080F820711A7952B11B79012B07D0002190
:10A970000DF0AFFF18B9BDE8F840FFF757BF2368E7
:10A980001E4A93F8A530D05C08F098FE236893F82F
:10A99000A420134493F82461022E2BD004D8012E56
:10A9A00005D040F2F971B8E7F31E012BF9D801F098
:10A9B00049FE314608F09EFD284609F001F831466F
:10A9C000012008F0A5FE7B1E2A463846594259410F
:10A9D000FFF778FF62680821002351712172216816
:10A9E000D3801372E37281F89530A372237303232B
:10A9F0001371F8BD0D20DCE7803E01201BA306008B
:10AA000010B50A4C052120680DF063FF18B9BDE8A8
:10AA10001040FFF70BBF2368012093F8201109F0C5
:10AA200077F863680B221A7110BD00BF803E0120C9
:10AA3000124A10B5536800B931B9184601F09AFEB0
:10AA4000BDE81040FFF7F2BE1979082904D841F299
:10AA500076413220FDF7AEFE19790C2902D941F278
:10AA60007741F6E71B79126903F180435268093B8D
:10AA7000BDE8104052F82330184700BF803E012047
:10AA8000054B1A6892F85420920703D05B68186847
:10AA900001F008BE58697047803E012070B5304D06
:10AAA00006466B681A79032A0BD01A79042A08D053
:10AAB000FFF7E6FF044640B941F2AE313220FDF720
:10AAC00079FE18680DF00BFCF4E72B6893F854300E
:10AAD00013B941F2B431F1E776B10FF063FB30B155
:10AAE0006B681A79022A0ED841F23431E6E7204623
:10AAF0000FF073FB0028F3D16B681A79022A17D87C
:10AB000041F29431DAE71A79082A02D941F2353153
:10AB1000D4E71B7920462A6903F180431269033B7D
:10AB200052F8233098470C2812D941F2C731C5E7B3
:10AB30001A79082A02D941F29531BFE71B792A69AF
:10AB400003F180435269033B52F823309847EAE708
:10AB50002B69DB68BDE8704053F82030184700BF10
:10AB6000803E012038B5FFF78BFF044620B940F244
:10AB700013513220FDF71EFE0B4DFF202B6893F87A
:10AB8000201108F0B7FC204608F01AFF2B6893F854
:10AB90002031033B012B94BF2820002008F070FFD8
:10ABA0006B6807221A7138BD803E012038B5134CFE
:10ABB0000E20236893F8201108F09CFCFFF760FF3B
:10ABC000054620B94FF4A0613220FDF7F3FD08F0EF
:10ABD000F7FE236893F82031033B012B94BF282014
:10ABE000002008F04DFF23682A46002193F8200139
:10ABF000FFF768FE636808221A7138BD803E0120A5
:10AC000010B5074C606801F085FDFFF7ABFB2068CD
:10AC10000021A0300EF05CFDBDE81040FFF706BE3D
:10AC2000803E012007292DE9F043064687B00F46F4
:10AC300090464568634C23D11DBB002A49D1D4E915
:10AC4000001091F8543013F0030218BF012213F0E2
:10AC50000403827103D033785A1E53425341C371A7
:10AC600091F894304BB12368D3F8900050300FF036
:10AC70008EFF10B9636801221A7207B0BDE8F08335
:10AC80003DB32946707C0DF082F8072F814661D1D3
:10AC9000637A63B158B1B8F1000F52D065680EF015
:10ACA000F7FE636868715B7923720123A37263689E
:10ACB0005879082855D17168707C0FF05EFF626882
:10ACC000054671680532707C04F0D6F86368002888
:10ACD00059D0236893F8540010F003000AD093F879
:10ACE0004C3039460195304662689279009242466E
:10ACF000FFF7BEFD62682368907193F8540010F06E
:10AD0000040009D093F84D30394601953046D27988
:10AD100000924246FFF7ACFD2B4B65681B68E8715B
:10AD20001BB1414630469847287272686AB3717CFD
:10AD3000236883F87E10116899679288A3F87C20B5
:10AD400023E0236893F820110129A7D1284604F0B5
:10AD5000CFF86072637A002BA9D0B9F1000FA6D0AA
:10AD60009CE704AA0DF10F0104F0AAF820B940F6FF
:10AD7000A6313220FDF71EFD04A99DF80F000FF04B
:10AD8000FCFE0546A5E7D88018726268137AB3B94D
:10AD9000D388003B18BF0123B06800283FF46DAF93
:10ADA000072F7FF46AAF517908293FF466AF002B73
:10ADB0003FF463AF04F0BAF80123E3725DE70123C7
:10ADC000EAE700BF803E0120803001202DE9F84FE6
:10ADD000DFF8C0A0914604468846DAF800201F46F6
:10ADE0008168807C0CF0D3FF92F848609AF80930B3
:10ADF000054686F00106002B3AD092F854305B07E6
:10AE00001DD592F84D30D3B192F84EB0BBF1080F7A
:10AE100023D0584604F00EF83043C6B245B39AF832
:10AE20000B303BB30EF03EFE002304468AF80B3095
:10AE300089F8004088F800503E70BDE8F88F6368DC
:10AE400023B1DAF8043093F805B0DFE7DAF804301C
:10AE500018680DF065FA0028F3D1CDB19AF80A1000
:10AE600031B9A06804F044F804468AF8090038B9FA
:10AE70000024DDE7A168584604F0AEF80446D7E7A1
:10AE80000EF006FE0828F3D0DAF804305871CFE748
:10AE90002C46CDE7803E01202DE9F043874D87B059
:10AEA00004462E6896F85730002B47D06F68BB7960
:10AEB00023B9FA7912B93A7A002A3FD094F800807F
:10AEC000B8F1010F72D0B8F1020F00F0D380B8F1E1
:10AED000000F33D196F8542091072FD00BB93B7A4D
:10AEE00063B3637813F0100FC3F300170CBF012294
:10AEF00008229A4322D10022A3688DF814208DF8ED
:10AF00001520002B47D00DF1160305AA0DF11501F0
:10AF10002046FFF75BFF2B6893F841609DF81430E3
:10AF200083B92046FFF726FA70B92B6893F855309D
:10AF3000023B012B02D89DF8153083BB032007B0DC
:10AF4000BDE8F08346F002065FB30DF117004FF045
:10AF50000008FFF703FBD5E9003903F1420708F0C9
:10AF600049FA9DF917303246CDF80C8021460293FC
:10AF70002B7ACDE900033B46484601F02FFC002820
:10AF8000DCD0A1690120FFF7A7FA0028D6D02B68F2
:10AF900083F896803BE0FF268DF81630D4E7FE2636
:10AFA000D2E731462046FFF731FBC7E796F820216C
:10AFB0006378022A3DD103F01903192BBED196F80C
:10AFC00054305A0739D40DF11700FFF7C7FAD5E905
:10AFD000003703F1420608F00DFA0023FF22214654
:10AFE00003939DF9173002932B7ACDE90003334682
:10AFF000384601F0F3FB0028A0D0A1690120FFF73B
:10B000006BFA00289AD02B68012283F89620626997
:10B01000002A4ED05178C1F3031183F897101178AC
:10B02000527802F00F0241EA0222A3F8982002208F
:10B0300085E703F01803182BC0E76168002320465A
:10B04000B1FA81F11A464909FFF7A2F900283FF445
:10B0500075AFA3692A689B781F2B04D892F84930F2
:10B06000002BB0D16AE703F0E003402BABD192F89C
:10B070004A30F5E796F854309B073FF45FAF6378AA
:10B0800003F01803182B7FF459AF0DF11700FFF7E9
:10B0900065FA08F0AFF90023FF22214603939DF9DA
:10B0A000173002932B7ACDE9000306F142033846AC
:10B0B00063E7FF2283F89720B9E700BF803E0120B5
:10B0C000014B586801F056BB803E01202DE9F04F3E
:10B0D000044689B0062900F2C580DFE811F060005F
:10B0E000E7000700C300C300C30026006E4D08F050
:10B0F00085FB2F6897F85430980714D06E68B379A1
:10B100008BB10DF11F00FFF729FA9DF91F300222C4
:10B110002146029330462B7A0193FF23009307F1D7
:10B1200042030DF0DEF803201FE05F4D6E68B37937
:10B13000002B00F097802F6897F85420910717D5BF
:10B140000DF11F00FFF70AFA9DF91F303046062265
:10B15000029321462B7A0193FF23009307F14203C8
:10B160000DF0BFF8002309202B7309B0BDE8F08F64
:10B17000D30777D5570701D508F040FB0DF11F0025
:10B18000FFF7ECF99DF91F202B6802922A7A4233CF
:10B190000192FF220092062221466868C1E7424DD3
:10B1A0002B6893F85420560737D56968CA79002A66
:10B1B00033D0426893F85B001678864255D15678B2
:10B1C00093F85C00864250D1967893F85D008642F1
:10B1D0004BD1D67893F85E00864246D1167993F823
:10B1E0005F00864241D1507993F8602090423CD173
:10B1F000627C93F85A00101A4242424193F856007A
:10B2000001284ED0002A4CD193F84E30082B02D0A2
:10B210004A799A4245D008F0F1FA6E68B379002B6A
:10B220003DD02F6897F85420930720D50DF11F00CB
:10B23000FFF794F99DF91F30304600220293214612
:10B240002B7A0193FF23009307F142030DF049F895
:10B25000012309202B736B68DA79002A85D19B7949
:10B26000002B82D108F0CAFA5DE70022C6E7D607B4
:10B2700015D5500701D508F0C1FA0DF11F00FFF7F1
:10B280006DF99DF91F202B68214602922A7A4233DC
:10B290000192FF220092002268680DF022F803203C
:10B2A000D9E70A20D7E700BF803E0120644D8168BE
:10B2B0002A68807C0CF06BFD92F854306E6807466B
:10B2C00092F84890590796F806A096F807B089F0CA
:10B2D000010940F18E8092F84D30002B00F08980FA
:10B2E00092F84E60082E00F08680304603F0A2FDF2
:10B2F00049EA00005FFA80F9002F7ED03046A1684D
:10B3000003F06AFE06462B6893F8542093F84180B8
:10B31000520749D5626893F85B10107888426ED165
:10B32000507893F85C10884269D1907893F85D105A
:10B33000884264D1D07893F85E1088425FD110794A
:10B3400093F85F1088425AD1517993F86020914266
:10B3500055D1627C93F85A10501A424242416968B2
:10B36000497908294DD093F84E30591A4B424B4138
:10B37000002E48D1B9F1000F47D02046CDE9042373
:10B38000FEF7F8FFDDE90423BBF1000F0AD02968BE
:10B3900091F8561001294ED021B9002A4BD108B19D
:10B3A000002B4AD108F02AFA2B6893F854309B07F7
:10B3B0003FF4B9AE08F022FABAF1000F3FF4B3AE91
:10B3C0002046FEF7D7FFD5F8009000B9FEB10DF189
:10B3D0001F0048EA4608FFF7C1F89DF91F300293A5
:10B3E0002B7A01935FFA88F30093012209F142035B
:10B3F000D2E6767976E7002685E73E4683E70022A7
:10B40000ADE70023B4E70120BEE73046BCE799F87A
:10B410005530023B012B3FF686AE002F3FF483AE42
:10B420000DF11F00FFF79AF89DF91F3002932B7A58
:10B430000193FE23D8E70028B4D00A2095E600BF88
:10B44000803E012030B58BB00546FEF78BFF114BD7
:10B450001B6893F8543013F0060F04D00122962194
:10B4600000200FF072FE2C786946284604F00F0485
:10B4700022460CF073FF002221466846FFF7D2FBFC
:10B4800021466846FFF722FE0446FFF7B3F920463F
:10B490000BB030BD803E012030B505468BB0FEF7C5
:10B4A00061FF2C7828466946294D04F00F040CF002
:10B4B000E8FF2B68072C16D193F8201168460CF092
:10B4C000E9FF002221466846FFF7ACFB2B6893F8A2
:10B4D0002031022B32D017D8012B1AD041F22F2164
:10B4E0003220FDF767F993F8542012F0060FE8D0E8
:10B4F00093F8A420134493F82421012AE1D1962142
:10B5000000200FF022FEDCE7033B012BE6D8072CDE
:10B5100019E0062C02D00BD8022C0BD82146684625
:10B52000FFF7D4FD0446FFF765F920460BB030BDA8
:10B53000072C09D008F062F90324F4E7072CFBD1AB
:10B540009DF80030012BF7D16846FFF7A5FCE9E72D
:10B55000803E012038B5154D2C6894F84830F3B181
:10B560006FF00043D4E920129A4208BFB1F1FF3FC7
:10B5700015D009F04BFFD4E92023904299410ED316
:10B580002B6893F848305BB92D6803F093FC0446B0
:10B5900009F03CFF064BE4FB0301C5E9200138BD7F
:10B5A000012003F0E5FC0028F9D0EDE7803E012002
:10B5B00040420F0010B50446FEF752FF237A032BDA
:10B5C00004D140F628113220FDF7F4F80BB9FEF74C
:10B5D000A5FE064B1B6893F9580008F05FF8FFF7CB
:10B5E0008FF9BDE81040FFF7B5BF00BF803E0120D6
:10B5F00070B51E4D06462A6892F8233192F8210153
:10B600005F2B4FEA531100F03F0097BF184B002407
:10B610005B18DC7808F052F82B6893F9580008F0B2
:10B620003DF8FEB12B682246996E012008F0D2F851
:10B630002B68214693F89630022B14BFFF20402040
:10B6400007F058FFFFF71CFA2B68064693F8951091
:10B6500019B902462046FFF735F93046BDE870407B
:10B6600008F0AEB92246AA21DFE700BF803E0120E4
:10B670001BA30600F7B52C4C0746226892F823312D
:10B680005F2B4FEA531197BF284B00255B18DD78DD
:10B69000936E13B10120FFF7ABFF2368D3F8880046
:10B6A00008F0C2F9236893F85420910703D593F862
:10B6B0009610022905D052070ED593F89620012A3C
:10B6C0000AD1042D26D193F85930012B0CBF032148
:10B6D0000421002008F01CFAD4E9006318689A36A7
:10B6E000D7B90CF01DFE6368074618680CF01EFE03
:10B6F00021680246304691F8963091F82011009169
:10B7000039460CF01AFF236883F820510023A372F6
:10B7100003B0F0BD2946DCE70CF014FE01463046CC
:10B720000CF000FFEFE700BF803E01201BA30600E6
:10B7300008B50120FFF79EFF024B06225B681A71D5
:10B7400008BD00BF803E012008B50020FFF792FF32
:10B75000024B05225B681A7108BD00BF803E0120C4
:10B7600010B50446FEF77CFE237A032B0AD1194B51
:10B770001B68986E20B140F63E113220FDF71AF892
:10B78000FFF736FF237A012B06D003D9023B012BAA
:10B7900012D910BDFEF7C2FD0E4C236893F9580074
:10B7A00007F07CFF2368002283F89520FFF7A8F8B4
:10B7B000BDE81040FFF7CEBE064B1B6893F89530EE
:10B7C0001BB9BDE81040FFF7BFBFBDE81040FFF751
:10B7D000AFBF00BF803E012008B5044B586800F0A1
:10B7E00099FFFEF7BFFD012008BD00BF803E01208C
:10B7F00008B5FEF7B7FD054B00211868A0300DF025
:10B8000067FFBDE80840FFF711B800BF803E012088
:10B810002DE9F3414C4D00230E4607462A6841F2BC
:10B820007070116D53720B885381CB69A3F57A74D4
:10B83000844295BF4FF47A7040F2E240B3FBF0F3DC
:10B84000B3FBF0F398BF03F550639BB213848B8C6A
:10B850005384CB8C93844FF47F43D3844FF6FF7390
:10B86000138517B3012130460EF011FC01463078E4
:10B87000C0092C6894F8483004F11402FBB10CF0B4
:10B8800086FAE0B10B6863618B88287A938004F1B3
:10B890000E0208284AD004F10D0103F011FB88B90B
:10B8A00041F2FD313220FCF785FF694668690EF0F0
:10B8B00040FB6B6969461878C0F38010D9E7002314
:10B8C0006361E2E72C68637B04F11A0843F002032A
:10B8D000637347B3002130460EF0D9FB0368C4F808
:10B8E0001A308388A8F804302B6893F95810186D23
:10B8F00003F0E6FB286815490EF010FD286814498E
:10B90000036D2A301A88A0F8092093F89630C37284
:10B910000EF00DFD0221286801F030FAFEF776FDE9
:10B9200002B0BDE8F08104F17800D7E794F87E30EA
:10B930006373A36FC4F80E30B4F87C309380002397
:10B94000C4F81A30E383CFE7803E0120EB7D050089
:10B95000A77D050008B5FEF74DFF044B002059698F
:10B96000FFF756FFBDE80840FEF7F6BC803E012019
:10B970002DE9F04705468AB0FEF7F4FC2B7803F07A
:10B980000F03082B05D04FF0010840460AB0BDE870
:10B99000F087694628460CF012FD9DF80080B8F14A
:10B9A000000FF0D19DF8013003F00303032BEAD11F
:10B9B0002D4C266896F84D30002B3BD096F84E70F3
:10B9C000637A002B39D14FF0000906F1780396F81D
:10B9D0007E2001999DF811000EF025F8B9F1000FB5
:10B9E00001D10028CFD0236893F8419003F1420A97
:10B9F00096F8483023B1384603F028FB024638BB9E
:10BA000052469DF812A0029950460CF0C0F9134618
:10BA100006464A4650460EF006F8E0B1206801217D
:10BA2000A0300DF055FEFEF7E5FE29460120FFF798
:10BA3000EFFEAAE763685F79C2E70EF029F80828ED
:10BA4000C1D0C31B2072D3F1000949EB0309BCE745
:10BA50004FF00109D5E7002E95D00299384603F042
:10BA6000BBFA0028DAD18EE7803E01202DE9F843A9
:10BA70006D4F0023064689467869D7F80080037029
:10BA8000437007F0B9FF054630B90025032003F0E5
:10BA9000D9FD2846BDE8F8837C69032E237834D18C
:10BAA00023F00F0343F0030323700C236370D8F8D3
:10BAB00078307869C0F80930B8F87C30A0F80D30DB
:10BAC00098F87E100EF049FA002178690FF049FBD2
:10BAD0003B6893F8482003F1420993F84180002A1B
:10BAE0007FD14C46236841467869C0F80330A3886B
:10BAF000A0F807300EF024FA4C4BD3F80C32002B90
:10BB000000F0848007F07AFEBFE723F02F032222A3
:10BB1000396843EA4913627043F0050323700B6DE3
:10BB20001B6AC4F80F300A6D936A180AE3741B0C81
:10BB30002075637592F87E00138E00284BD04FF06D
:10BB4000640CB3FBFCF3A375D36A002846D06420D1
:10BB5000B3FBF0F3E375C3F3072341F27070237670
:10BB6000D369A3F57A7C844595BF4FF47A7040F28F
:10BB7000E240B3FBF0F3B3FBF0F398BF03F550637F
:10BB80009BB263761B0AA376938CE3761B0A23771A
:10BB9000D38C63771B0AA377D2F89730C4F81F3091
:10BBA00092F89B3094F8242084F823300B6D22F017
:10BBB0001F0293F8A23003F01F03134384F82430CC
:10BBC00002F010FF94F8243003F01F0343EA4013FF
:10BBD00084F824306BE740F2E24CB2E740F2E240F6
:10BBE000B6E793F8542052070DD593F84D2052B183
:10BBF00093F84E0003F02AFA044600283FF471AF90
:10BC00004FF001086EE77B685879F3E7052E7FF463
:10BC100040AF3B6821681A6DC2F80A10A188D18133
:10BC20001B6D83F8098034E7803E012000A00840A6
:10BC300010B500210320FFF719FF18B9BDE8104027
:10BC4000FEF7F4BD074C032120680CF042FE0028EB
:10BC5000F4D00121084607F05BFF636809221A71DE
:10BC600010BD00BF803E012038B5184D6B681868C4
:10BC70000CF035FB044620B94FF4AB613220FCF7E1
:10BC800099FD6B680A22002128681A7101F076F884
:10BC90002B6805201A6D237892F8964004EA531415
:10BCA00004F001042146FFF7E1FE18B9BDE8384071
:10BCB000FEF7BCBD042128680CF00BFE0028F5D06F
:10BCC0002B681B6D83F8964038BD00BF803E012075
:10BCD00010B5114C0C220121636820681A7101F023
:10BCE0004DF800210520FFF7C1FE18B9BDE810404E
:10BCF000FEF79CBD062120680CF0EBFD0028F5D076
:10BD00002368012093F8201107F002FF2368012225
:10BD10001B6D83F8962010BD803E01202DE9F04177
:10BD2000044690B00D46FEF71DFB237803F00F0389
:10BD3000072B06D00124FFF7C3F9204610B0BDE859
:10BD4000F0812046A44C06A90CF09BFB206806A9B4
:10BD50009A300CF010FC23689DF8181093F8962088
:10BD6000914248D1032D03D193F89720FF2A13D095
:10BD70009DF8192012073ED50B9993F897004A7841
:10BD8000B0EB121F37D1097802F00F02B3F89830E8
:10BD900041EA02229A422ED12A46072106A8FEF73E
:10BDA00041FF6368DA880AB91B7A23B30023089E2F
:10BDB0008DF814308DF815308DF81630F6B10DF180
:10BDC000160305AA0DF1150106A8FEF7FFFF23686B
:10BDD0009DF8146093F8415045EA4605EDB29DF890
:10BDE00018209DF81580012A9DF8163008D0022AE7
:10BDF0007AD0002A4BD0FFF763F914E0FF25EEE775
:10BE00009DF81900226800F0090792F89A10092F8E
:10BE100002D041B1070706D592F85420500704D448
:10BE200063689B799BB9012459E06268D279002A42
:10BE3000F6D0324606A8FEF7ABFA0028F0D020680C
:10BE4000A0300DF067FC0028EAD00C2447E02368FE
:10BE500093F854309A07E6D09DF819309B0700F10B
:10BE6000C280FF2106A8FEF7D1FBDCE706A8FEF79B
:10BE700081FA002840F0BA80236893F85530023BDD
:10BE8000012BD0D8B8F1000FCDD0FE21EAE723680E
:10BE900093F854309F07C6D09DF81930980721D5E4
:10BEA0006EB906A8FEF766FA48B9236893F85530CC
:10BEB000023B012BB7D8B8F1000FB4D0FE25636860
:10BEC0001B7A33B1454B1B681BB10D9808B10F9914
:10BED0009847294606A8FEF7D1FB441CE4B2FEF7BA
:10BEE00089FC2AE7FF25EAE7226892F854209107A7
:10BEF00099D061688979002995D09DF8197007F06B
:10BF0000090109298FD1920707F0020768D5002F90
:10BF100034D05EB30DF11700FEF720FB00210320A3
:10BF2000FFF7A4FD0646D4E9003803F1420707F005
:10BF300061FA01232A4606A903939DF9173002935B
:10BF4000237ACDE900033B46404600F047FC002E33
:10BF50003FF469AF00283FF466AF2068A0300DF0D1
:10BF6000D9FB00283FF45FAF0B24B8E7002B83D048
:10BF700006A8FEF7FFF90028CCD17DE70DF11700E8
:10BF8000FEF7ECFA39460320FFF770FD0646D4E9C8
:10BF9000003803F1420707F02DFA01232A4606A9CB
:10BFA00003939DF917300293237ACDE900033B46B2
:10BFB000404600F013FC002E3FF435AF00283FF45C
:10BFC00032AF2068A0300DF0A5FB0028CCD160680E
:10BFD00000F0A0FB27E700BF803E01207C3001205D
:10BFE000002F3FF43EAF002E3FF440AF294639E723
:10BFF000036D10B5044623B94FF456713220FCF797
:10C00000D9FB0222074942721B884381FF2380F833
:10C0100027304FF6FF7303850EF080F90023236568
:10C0200010BD00BFEB7D0500F8B5184F0E4601218D
:10C0300078610020FDF752F8054620B940F68201EC
:10C040003220FCF7B7FB4FF4947200210FF020FA76
:10C0500001210846FDF742F8044620B14FF49472DE
:10C0600000210FF015FA3B6913B940F68C01E7E7A0
:10C0700030460BF09EFF28460CF099FC24B1204678
:10C08000BDE8F8400CF093BCF8BD00BF803E012035
:10C09000014B024A1A617047803E01207431012031
:10C0A000014B024A1A617047803E01208C31012009
:10C0B000036810B523B940F66D113220FCF77AFB06
:10C0C000044A13606C3353601369BDE810401B6869
:10C0D000184700BF803E012008B5044B586800F0A7
:10C0E00049FBBDE80840FEF7A1BB00BF803E012030
:10C0F00038B5044690F8400000F0FD0004F142011C
:10C10000003818BF012084F8410002F08BFD94F83C
:10C110004030023BDBB2012B94BF0123002384F8A3
:10C12000483015D802F0C6FE054609F06FF9094BF4
:10C13000E5FB030194F84830C4E9200143B1002035
:10C1400002F016FF20B940F615213220FCF732FB31
:10C1500038BD00BF40420F00014936300EF0E1B853
:10C16000C97D050010B5084C0222636820681A7169
:10C1700000F0D2FC38B920680CF07BF82068BDE8EC
:10C1800010400CF073BD10BD803E0120013808B591
:10C19000C0B20A4B41B1032801D8185C08BD40F277
:10C1A000B9113320FCF706FB032802D803441879A1
:10C1B000F4E74FF461710620F4E700BF21A3060005
:10C1C00008B50BF059FD054AD2E84F3F0133DBB209
:10C1D000C2E8413F0029F7D108BD00BF983E0120C9
:10C1E000024BA0F108015868FFF7EABF983E012012
:10C1F0002DE9F84F1E463C4B0D46934600211A7818
:10C2000004689DF828709DF82C809DF930909DF869
:10C2100034A0016032B9A4F108015868BDE8F84FB4
:10C22000FFF7CEBF1A2204F109000FF031F9012304
:10C23000A372BBF1060F4FD8DFE80BF00433394E81
:10C24000434E3D00E37A23F0130343F01303E372FC
:10C25000012304F10E0241462846237547F6FF7379
:10C2600084F81890E38204F10D030CF00CF8E37AE3
:10C270005B0736D5BA1E04F11C03012A8BBFAA68DE
:10C2800032681168E2618ABFE161B28892889A805F
:10C29000E7760023237215492046BDE8F84F0EF0DB
:10C2A00040B8E37A23F0150343F01503CFE7E37AB0
:10C2B00043F01003CBE7E37A23F0120343F01203B9
:10C2C000C5E7E27A4AF01A0A22F01B020AF01B0ABA
:10C2D00042EA0A02E272BBE740F22B413320FCF74C
:10C2E00069FAFF23E376D4E7983E0120F1C2040007
:10C2F0002DE9F04F05468DB00C4600200121FCF7DA
:10C3000029FF064620B940F2C7113320FCF752FA44
:10C31000A8300CF0D1FA18B196F85430042B2ED175
:10C3200030460BF03BFE50BBB64C04F1080604F15E
:10C330000C07AB6A93B92846FFF752FF4FF400731E
:10C34000ADF804309DF80430002063F307009DF839
:10C35000053063F30F200DB0BDE8F08FA96A0B68BC
:10C36000B142AB624FF000030B704B708B70CB701F
:10C37000DFD0B942DDD06068FFF722FFD9E7AF6AAE
:10C3800037B3A14B9F4226D0043B9F4223D007F1F5
:10C390003B0A4FF0000802F0BBFA8146B8F1000FEB
:10C3A00040F0008102A950460CF06BF8B9F1000F83
:10C3B00016D004F10D00EE7A16F0100613D09DF899
:10C3C0001860059932460AF0ADFC4FF0010828E0EC
:10C3D00005F1330ADDE74FF001084FF0000ADAE714
:10C3E00004F11C00E7E7002FEFD09DF80830022B86
:10C3F000EBD0014695F83230E52250460DF056FE5E
:10C4000095F8323006460344504685F832300DF038
:10C4100045FE95F83280A8EB0000D0F1000848EB0B
:10C420000008B9F1000F00F0C180EB7AD90604D4FE
:10C430005B216AE7C8460026F7E713F0040FAA7AE3
:10C4400095F80DE004F1060005F10E0C30D0E97E00
:10C45000FE292DD11123E27084F805E02370130129
:10C460000233637001232371D5F80E30C4F806300F
:10C47000BCF8043083802173EB69C4F80D302B8C39
:10C48000A4F811302B7EE3745E4E06F1080A57457E
:10C490003BD12379022205F1280062F34613237170
:10C4A0000BF00DFF02272846FFF79AFE04263FE017
:10C4B00006F10A030321E27053432170023384F82A
:10C4C00005E06370D5F80E30C4F80630BCF80430CF
:10C4D0008380267326442B7E7373EA7A12F0080059
:10C4E00002D004232371CFE702F00303032B01D111
:10C4F0002071C9E7520701D50123F3E7022BF1D0E0
:10C500000BB92171C0E7A221FFE606F10C094F45E6
:10C5100015D105F128000BF0D2FE6A7D6AB92379A6
:10C52000042662F34613237102272846FFF758FEBC
:10C530008DF804608DF8057004E70026F4E747B332
:10C54000B8F1000F20D005F1280840460BF0B7FEE7
:10C5500039467068FFF734FEAB6A0022534585F810
:10C56000322096D04B4505D12379404662F34613DD
:10C57000237195E79DF80830022B05D1237923F02C
:10C5800068030127237191E72379012262F346139F
:10C59000F7E7EE7A16F01006CAD0237967F3461350
:10C5A00023717FE700287FF445AF0646042305F199
:10C5B0002301237006F11803AA7A5343E270221D67
:10C5C0000233637005F10B0353F8040B8B4242F8FE
:10C5D000040BF9D195F814A095F815B002F0D6F92E
:10C5E000C1F3402950464946FFF7D0FD6073BBF1C7
:10C5F000000F04D049465846FFF7C8FDA073E67601
:10C6000042E700BF983E0120A43E0120343270B5BD
:10C61000054692B20C461E460BF0F6FA25B1034AC7
:10C62000556014745674147070BD00BF983E01209C
:10C6300010B5034C60680BF009FB237C237010BD20
:10C64000983E0120014B587C704700BF983E012066
:10C6500038B5134D68680BF0FFFA044620B940F274
:10C6600047113320FCF7A6F8D5E84F3F013BDBB27A
:10C67000C5E8413F0029F7D104F1080334221846E8
:10C680000EF006FF47F6FF720121E462E283FF220B
:10C69000627584F82320E27C61F34612E27438BDAF
:10C6A000983E012038B5436A044693B90A4D68683C
:10C6B0000BF0D2FA606220B94FF4B0713320FCF76E
:10C6C00079F8D5E84F3F013BDBB2C5E8423F002A8D
:10C6D000F7D1606A3B3038BD983E0120036810B541
:10C6E00004465BB1596A49B101F10802934204BFA3
:10C6F00000230360064B5868FFF762FD216831B1E3
:10C70000034B08395868FFF75BFD0023236010BD19
:10C71000983E012038B5046805469CB1134920466F
:10C720000DF008FE124B00221A735A739A73DA73D3
:10C73000EFF3108272B6A16A0C3399B9A362E36277
:10C7400002B962B62C68616A49B101F108039C42E2
:10C7500003D0074B5868FFF733FD002363620023C3
:10C760002B6038BDE16A0B60E9E700BFF1C204004D
:10C77000983E012070B50668044656B3716A154D9F
:10C7800041B101F108039E4202D06868FFF718FD2D
:10C790000023736221684E7DB6B100232B726B7249
:10C7A000AB72EB72EFF3108272B6886A0A4B40B933
:10C7B0008B62CB6202B962B62046BDE87040FFF7DB
:10C7C000A9BFC86A0360F4E708396868FFF7F8FC96
:10C7D000266070BD983E0120A03E01202DE9F04763
:10C7E0000468914606460D469A469DF820209DF81D
:10C7F0002C8024B94FF448713320FBF7DBFF664FE0
:10C800003B78B3B9B8F1020F0DD009D9B8F1030FD5
:10C810000CD03368002B00F08A8040F23D31EBE70A
:10C82000FFF75CFFF5E7FFF775FFF2E7FFF7A2FF01
:10C83000EFE7636A0BB94021DEE783F81180CB682C
:10C840007BB1097C238E0B4440F272618B4207DD81
:10C85000FFF790FF3368002B69D040F25A31CBE7E5
:10C8600023860123A3729DF928302376B8F1000FA7
:10C8700060D122756B691BB15B78C3F30313A37599
:10C88000EB6913B15B88A4F819302A78511E4B422A
:10C890004B41E17A63F30001C1F34003022A08BF70
:10C8A00043F0010363F34101C1F34003002A14BFC5
:10C8B000002303F0010363F3C301AB68E1721BB112
:10C8C000CBB243F00403E3722B6A13B193F9003047
:10C8D000E3756B6843B104F10D0304F10E029DF89A
:10C8E000241028460BF0CFFCAB688BB1A9F10201F4
:10C8F00004F11C02012995BFDAF800301968E361E0
:10C90000E16194BFBAF804309B88938084F81B904F
:10C91000A969B8F1000F0FD179B38B784A7803F089
:10C920001F0352EA032228D13046FFF7D7FE00202A
:10C93000BDE8F08762759DE70022636A1A705A703D
:10C940009A70DA70A26AEAB9A362E36289B14A789E
:10C95000897801F01F0152EA01220AD1A16A3A72D4
:10C960007A72BA72FA720D4A79B9A2620023E2624F
:10C9700033600B4920460DF0DDFC636A3BB940F2A1
:10C98000971139E7E26A1360DFE71A60EEE70023E8
:10C9900001206362CCE700BF983E0120A03E012049
:10C9A000F1C2040010B590F854308A1E012BD2B2A7
:10C9B00005D1022A2CD8184B33F8120010BD0329D8
:10C9C0001DD002291FD14FF4E1700024124B03EB5C
:10C9D0004403DB8803390344012903F196038CBF28
:10C9E00000202820022A4FEA400094BF0B4940F65D
:10C9F0004802184498BF31F812201044DEE740F294
:10CA000064600124E2E740F2E6204FF4B073E1E70E
:10CA100040F64800D2E700BF2AA306002AA306007A
:10CA2000014610B504460E4808F018FD202884F889
:10CA3000170111D021460A4808F010FD202884F87B
:10CA40001E010BD194F8170108F0F8FC20B940F250
:10CA50008F212120FBF7AEFE002010BD0120FCE756
:10CA6000DB890500014B1870704700BF11300120B1
:10CA70007FB590F8143103F0FF0223B140F2B721E3
:10CA80002120FBF797FE0C78039214F0010318BFE6
:10CA90008D68CDE9012218BF0195A60707D504AD21
:10CAA000CE6805EB83050133DBB245F80C6C6507F6
:10CAB0002BD504AD0E6905EB83050133DBB245F8D8
:10CAC0000C6C013B134D80F81D314B68C0F8C83029
:10CAD000C0F8F83040F27123A0F8FC30002315F8BC
:10CAE000011B0C420BD004A900EB820601EB820172
:10CAF000013251F80C1CD2B22B39C6F8CC100133DC
:10CB0000DBB2032BEBD104B070BD002BD9D14FF4B5
:10CB10003471B5E736A3060090F823315F2B4FEA56
:10CB200053112DE9F04F044689B000F2A5808F4AD9
:10CB30000A4492F80F90B9F1040F04D100224FF08B
:10CB4000030980F81F2194F9212103F01F0394F8B1
:10CB50002271002A47EA032794F82131B4BF4FF429
:10CB600096721E22DB0902FB07F70CBF4FF01E0B6B
:10CB70004FF4967B06F044FC3D1A06F083FC94F8D3
:10CB80002131804605EB0B0A13F0400FB8440CBF6F
:10CB90004FF4FA7632260CF0CCFD754B0644B5F511
:10CBA000977F0AFB06F606F5742606F23F26B6FBCB
:10CBB000F3F66AD394F8153103F0FF0A002B5ED127
:10CBC000484607F02DF96B4B4FF47A7253F82970F1
:10CBD00007F52243B133B3FBF2F5E2355D4405EBD3
:10CBE00046050544484607F01BF90190484607F002
:10CBF0001FF9494683462046FFF7D4FE00F18C0317
:10CC0000019AA7EB0B072B448DF808A08DF811A013
:10CC10009B1A4FF47A72B7FBF2F7DF1BD4E92C3280
:10CC20000397BB3B42F1FF3213EB080342F10002D2
:10CC30009B1B62F10002CDE906324F4B1878FE28AB
:10CC400003D094F854305A0701D408F04DFD8DF804
:10CC5000100002A994F81701C4F8D870C4F818514C
:10CC6000DDE90623C4E92E2308F076FC38B940F24A
:10CC700004712120FBF79EFD4FF0000963E706F0E9
:10CC800019FE08F0C6FB01205EE048464FF47A7AB0
:10CC900007F0C6F8374B53F8295005F2E737B7FBD2
:10CCA000FAF720375F44474437440744484607F0C3
:10CCB000B7F80190484607F0BBF88346494620463E
:10CCC000FFF770FEA5EB0B0500F18C03019AD4F879
:10CCD000D8903B44B5FBFAF59B1A5D1BA94514D3CC
:10CCE00094F81C31A8F1100802A802948DF81830AD
:10CCF0000223A8EB060603978DF810300023059653
:10CD00008DF81930FFF7D4F9BDE71B4B93F800A05D
:10CD1000BAF1FE0F03D094F854305B0702D408F048
:10CD2000E3FC8246504608F0E9FCA5EB09035146B6
:10CD3000192B38BF1923834228BF034618461D46C6
:10CD400008F071FC18B1002009B0BDE8F08FD4F8EC
:10CD5000D8302B44A3F18200C4F8D830C4F8E000E6
:10CD600008F046FD0028BBD1EDE700BF2AA306006E
:10CD700040420F0044A606001130012001292DE990
:10CD8000F347064605D9022900F0A08040F652017B
:10CD900050E001F00104D0E92CA706F04FFB96F813
:10CDA00020818146204641460CF0A3FF05464046BF
:10CDB00007F03EF80246002C3FD0A8F10203DBB298
:10CDC000022B3AD8574901EB43035B8A15EB09055F
:10CDD0002CBF0121002115EB0A0547EB0107524941
:10CDE00051F8280000F2E73010444FF47A72B0FB9B
:10CDF000F2F02D1A67F10007ED1847F100070DF06A
:10CE0000D2FE5430D6F810812C1AD8F81C9067F155
:10CE1000000503F04DFB06F1E803834210D04A46BB
:10CE2000CDE90045D8E972010DF0CBFE81451DD258
:10CE300040F27B312120FBF7BDFC4FF4FC73C5E7CA
:10CE400098F87D0090B1D6E93A7A03F089FB30B9C1
:10CE5000B8F9EC31A8F8EC01DF194AEBE37A4A465D
:10CE600038465146CDE900450DF0ABFE2F4B1A6810
:10CE7000D6F81031824293F87E100BD9DE69321851
:10CE8000DE6279B941F66A018842198616D340F20A
:10CE9000E471CFE749B16422B0FBF2F1514302469D
:10CEA000401AD9624FF4FA71EEE740F2E242B0FB69
:10CEB000F2F151430246D962401AE3E7121945F1F3
:10CEC0000005C3E9722502B0BDE8F087D0F8103143
:10CED00013B940F2EF71ADE7002583F8F05190F8F7
:10CEE000201183F8741083F87510FF2483F87640BE
:10CEF0000339D0F81001012900F13C008CBF00215A
:10CF000001210DF080FAD6F810010DF075FFC6F87A
:10CF1000105186F8164106F0CDFC02B0BDE8F0478E
:10CF200008F077BA2AA3060058A60600AC3E0120F6
:10CF300008B50B4B30B101280DD040F6650121201A
:10CF4000FBF738FC18601A6841F669039A4206D963
:10CF500040F66E01F3E740F6C4121A60F3E708BD2D
:10CF6000AC3E01202DE9F04F04468FB01E468B46A3
:10CF70000392BDF8608008F049FA8146204604918A
:10CF80000BF094FBD4F8CCA00546002E00F02482D0
:10CF9000002800F0428220460BF013FD039B80F036
:10CFA0000106F6B2002B00F0188119F5FA6305931B
:10CFB000049B43F10003069303F0C6FA03F07EFAE4
:10CFC000074604F1E8003946079003F049FAD4F81F
:10CFD000101111B107980BF0C3FC1FB1B7F9242051
:10CFE000A4F80C21B5B1D4F8F050B7B1B868059BDE
:10CFF000D7E9002100938018069B2A4641F10001E1
:10D0000001930DF0DEFD854208D240F26731212008
:10D01000FBF7D0FBD4F8C850E7E73846079003F099
:10D0200099FA059B0798D4F8C8C0C518069B43F128
:10D030000007B8F1000F00F0CB801FFA88F842F229
:10D04000107329463A46E8FB03120CF2CF730344EF
:10D05000B3FBFCF30CFB03F3EB1A67F10000C4E92C
:10D060003A300123C4E92A124FF0000804EB080209
:10D070002046069392F824110BF0DBFA0590069BEC
:10D08000D4E92A21521B61EB0701012A71F100004A
:10D090004FF00000C0F290819245884100DB92463B
:10D0A00004EB8808D8F8CC20524594BFC4F8DC20A3
:10D0B000C4F8DCA026BB1BB35900B4F90C0189B23B
:10D0C0000DF038FAB4F80C21D4F810314FEAE07CB6
:10D0D000121A12B2A4F80C2143B1A3F8EC21D3E93F
:10D0E000722112184CEB0101C3E97221D4E93A32E2
:10D0F0002D184CEB07071B184CEB0202C4E93A321F
:10D10000039B2BB1D4E93A23C4E92C57C4E930235B
:10D11000059B4FF000082A462046C4F8D8303B460D
:10D12000C4E92E578BF809800BF0D6FA059B8BF8D3
:10D130000800CBF80430002E00F049810123049947
:10D140008BF80030D4E92A32B3EB090362EB010219
:10D15000012B72F10001C0F23181B34F9F4278EB95
:10D16000020200DB1F46D4F81031D4F8C880002B2F
:10D1700040F0298107262046A8FB06560BF096FAB8
:10D18000002800F01D81D4E92C32ED1846EB020690
:10D19000A945049BB3410FD2B5EB0905049B66EB8F
:10D1A00003066FF00103AB424FF00003B34102D31B
:10D1B000AF4228BF2F46B846CBF81080D4F8DC0029
:10D1C000059B984234BF002001200FB0BDE8F08FCE
:10D1D0004FF0FF316FF0004237E7002E38D06FF08C
:10D1E0000043D4E92A129A4208BFB1F1FF3F2AD086
:10D1F00094F81C312046234493F824110BF019FABB
:10D20000039B19F1AB0205468DF82030049B099071
:10D2100008A843F10003CDE90C230223ADF8283020
:10D2200008F0D4F910B94FF49661F0E6D4E92A3247
:10D230000C995B1A0D9962EB01025B1B62F1000312
:10D24000002BC0F2B2804D46049F012600230BE75D
:10D25000D4E93A37D4F8C8500026A9EB030259198B
:10D26000B2FBF5F205FB02F247F100075218A2EB00
:10D27000090147F10007AA290DD8D4F8B810C91A36
:10D28000B1FBF5F105FB0133D31AB3FBF5F3AD1890
:10D2900047F10007E8E694F8241120460BF0C9F99D
:10D2A000D4F8B820D4F8C850099020468DF82060F2
:10D2B0008DF82960D4E93A13521AB2FBF5F26A43A9
:10D2C000521843F10003CDE90C230BF005FA29466F
:10D2D0008DF8280008A80CF0A6FC0346DDE90C57E1
:10D2E000C2E651F8042F013302F12B0CBC459FBF5D
:10D2F000821A08F10108BF185FFA88F8DAB2964579
:10D30000EFD804EB0803204693F824110BF091F9B1
:10D31000384404EB8803D3F8CC30834209D3A3EB21
:10D32000070ABAF1000F24DA4FF48D616FE62F4639
:10D330006AE094F81D11D4F8C820414511D908F1CC
:10D34000010895425FFA88F808D204EB8803D3F805
:10D35000CC3003F12B029A461546E2E740F24241F7
:10D3600055E69542F7D352009542F4D340F25F411F
:10D370004DE6AD19059B20464FF0000643F100072E
:10D38000D4E92C230BF02DF9D4F8C8305843D4E954
:10D390003A321B18204642F10002C4E93A323B46B9
:10D3A0002A460BF01EF9034660E6039B4D46049F98
:10D3B00001269A46984659E6824671E64746D2E6E5
:10D3C000D4E93032E1E64FF0FF352E46E0E68BF847
:10D3D0000060CBE90457F1E6039B002B7FF4E5AD39
:10D3E000D4F8C87009F1AB05D4E93A23A9EB0206D9
:10D3F000B6FBF7F67E43B618A5EB060543F100032E
:10D40000AF42059393D8EF1B002394F81DE104F17C
:10D41000C8016FF02A00984670E7039B002B3FF489
:10D4200017AF2E46C1E500BF0040420F0138C0B221
:10D43000032808B504D94FF461710620FBF7BAF947
:10D44000014B185C08BD00BF46A306000138C0B2FE
:10D45000032808B504D94FF461710620FBF7AAF937
:10D46000014B185C08BD00BF63A306000138C0B2C1
:10D47000032808B504D94FF461710620FBF79AF927
:10D48000014B185C08BD00BFC4A306000138C0B240
:10D49000032808B504D94FF461710620FBF78AF917
:10D4A000014B185C08BD00BFCFA40600014B1868F3
:10D4B000704700BF843F012008B5034610465A1E3E
:10D4C000032A10D84A1E032A0DD8084A0129517090
:10D4D0000CBF00210A211071937091721946FCF75C
:10D4E0002BF8002008BD6FF01500FBE78035012008
:10D4F000074B5A8A38B142F01002987A5A82DA8A77
:10D500009A839877704722F0100298835A82F8E73E
:10D510008035012010B4094C637A58B143F00403FC
:10D520000029637210460CBF00230723637110BCEF
:10D53000FFF7DEBF03F0FB03F2E700BF80350120F9
:10D54000024B987CC0F30010704700BF803501206B
:10D5500040EA4100014BD870704700BF8035012080
:10D5600010B504460BF0BCFB08B9002010BDE04329
:10D570000BF0B6FB0028F8D0E31683EAA4635A1E2A
:10D580001A42F2D0E3B25A1E13405A1E1342ECD094
:10D59000A0B20DF023F80B28E7D820460DF01AF8BA
:10D5A0001828E2D8A3B2B3EB144F04D184EA1423B1
:10D5B00013F0FF1FD9D0044B6340581E18400038A9
:10D5C00018BF0120D2E700BFD6BE898EF0B5070C88
:10D5D000164BA7F5AA4203EA9023543A012A20D910
:10D5E00027F4004042F6AA22801A18BF0120002228
:10D5F00016211F24164687EA060562EA050501354D
:10D6000011D0DD0301394FEA5303ADB245EA5606A6
:10D610004FEAC4354FEA5404ADB245EA5202EAD1AA
:10D62000F0BD0020E3E70020FAE700BFE0FF3F0085
:10D63000F8B50D46074640F67A4CBDF81860A81FAD
:10D64000BDF81C1080B2604515D8941FA4B2644583
:10D650008CBF0020012087B9194C247984B188B986
:10D660006FF45067EC19062C04D86FF45064141949
:10D67000062C07D9F8BD0020EDE797F87D40EDE7CF
:10D680000028F7D0954218D803FB0111B1F5FA7FB5
:10D6900013DCA6F10A0340F676409BB283420CD815
:10D6A00010460BF008FC42F2107341435E43B6EBA8
:10D6B000410F8CBF01200020DCE70020DAE700BF2B
:10D6C000903F0120F7B5002304460E461746CDE9EA
:10D6D00000336846FBF778FD08B1002016E0009D96
:10D6E000A542F6D03046EB1C0BF0DFFB3946AA789A
:10D6F0000CF099F90028ECD005F10A036A7A04F1DC
:10D700000A01607A0CF08FF90028E2D003B0F0BD76
:10D71000054A134692F8202053F8211B11F8030BF9
:10D72000C0F380100CF07FB91845012001281ED8E5
:10D73000022B0DD1A2F57A700F4B984219D8A1F5A2
:10D740007A70984215D88A428CBF12200020704708
:10D750000A4882420DD8012B0CBF40F2527340F6AA
:10D76000C3139A4205D9A1F6C410054BE9E712206C
:10D7700070473020704700BFA7F970028FFD70021C
:10D78000CBF3700210B504460A480AF041FD0A497D
:10D790002046FFF76DF920460AF061FC38B12046BB
:10D7A000FEF7A6FC20460AF030FD002010BD122036
:10D7B000FCE700BFAC3F0120B43F01202DE9FF4151
:10D7C00006788046012E40F09A8031460020FBF713
:10D7D000C1FC054620B940F633713920FAF7EAFF5B
:10D7E000B8F80430002B40F082800AF0D7FB002804
:10D7F0007FD195F81431002B7DD12846FFF7C2FF69
:10D800000446002879D1594F31463046FBF7A2FC37
:10D8100097F83810064619B110B940F64F71DCE799
:10D820003A7F0023CDE9023312F001031CBFF86AEE
:10D830000290520741BF04AA02EB83037A6B43F8BC
:10D84000082C002945D096F81431002B41D0B8F8A7
:10D850000230002B3DD13B7F3046009302ABBA6AC9
:10D86000B97F0AF07CFCA0B330460BF02BF806F130
:10D870004003804605F14002683653F8041BB3426A
:10D8800042F8041BF9D12846FFF77CFF024610B18D
:10D8900040F67671A1E7B8F10C0F07D10146284692
:10D8A0000BF0D7F9F8B940F67A7196E7B8F1000FA6
:10D8B00002D040F67F7190E77B7F2846296D43F0C8
:10D8C000040385F854300BF0A0F960B940F681717B
:10D8D00083E7B8F804202846B8F802100BF0B9F92D
:10D8E000002808BF0724204604B0BDE8F0811124B9
:10D8F000F9E73A24F7E70C24F5E71224F3E70121CE
:10D900000020FBF727FC054610B940F6947164E748
:10D910000AF067FF04460028E5D195F8543095F8E1
:10D92000A62022B195F8A720134385F8A600053B51
:10D93000012BD8D82B6D13B940F6A4714DE7012106
:10D940000846FBF707FC29464FF49472064609F097
:10D95000E9F90423316D304686F854300BF055F95F
:10D960000028C0D140F6A97137E700BF903F0120E1
:10D970002DE9F04F9A4685B0764B04460DF1080923
:10D98000754F186888461B791646029089F804304E
:10D9900097F8563013B1484601F0E6FB00212046C7
:10D9A0000CF0E4F86D4D6E4BA4F80080C4F8003222
:10D9B000AB68E36396F84A2006EB4202B2F82AB05D
:10D9C00058460BF078FA01466FF450600023834408
:10D9D000BBF1060F6BD9908C4FF0961284F87E3015
:10D9E0002387626340F2E2420BF065FA02F0BEFD6B
:10D9F00040F2E2430146A4F8DC312046E161C4F87C
:10DA0000D8110DF0E9F9834600F0C0FF8306297CA8
:10DA100053BF1B236B88AA881A46A4F86630514B63
:10DA2000A4F868201B6884F84410A4F846B01BB121
:10DA300094F97C10404698473B79003B18BF01237E
:10DA400084F87D30484B1B6813B1484920889847BB
:10DA500001236386464B1B6813B1464920889847CB
:10DA6000454B1B6813B1454920889847444B1B68B8
:10DA70000BB120889847434B1B680BB1208898470F
:10DA8000AB8804F114006A8869780333033201918A
:10DA90009BB2297892B2009104F11801FBF7CCFBFC
:10DAA000636973B941F2E3113920FAF783FE4FF04D
:10DAB0004D1223870123626384F87E304FF47A731A
:10DAC00099E7A36913B941F2E411EDE70BF0CDF941
:10DAD0002062BAF1000F04D001F06EFE20F07F400A
:10DAE000A06296F84A302046E96806EB4306338E7A
:10DAF000A384F38EE3840DF06CF9494604F196009B
:10DB00000CF069F997F8563013B9FF2384F8043202
:10DB10003B6E23B1012204F59171204698471A49C2
:10DB200020460CF0D1F801F047FE0C230121B0FB98
:10DB3000F3F202FB1300C0B2431DDBB2082B9CBF03
:10DB40000D30C3B2204684F8A2300CF00FF805B0B7
:10DB5000BDE8F08FE3B40600903F0120544401205B
:10DB6000E73F0120AC310120A8310120983F01207E
:10DB7000C0310120CA3F0120B0310120D43F012033
:10DB8000B4310120B83101207244012010B50321C5
:10DB90000020FBF7DFFA044670B90321FBF79EFA79
:10DBA000044620B940F293313920FAF703FE034BC3
:10DBB00093F964100DF04AF8204610BD903F012003
:10DBC0002DE9F04F87B007468846008804A90BF07E
:10DBD0006BFF064600287CD1059D95F87531002B1A
:10DBE0006DD0B8F1020918BF4FF0010995F88F30D8
:10DBF000232B95F8E13043EAD3030CBF89F0010AE7
:10DC00004FF0000AD90702D4BAF1000F63D0B878F8
:10DC10009DF8104008B900F0BFFE8DF80B00F878B1
:10DC200008B900F0B9FE2E4B8DF80C00D3F800B007
:10DC3000BBF1000F0BD00AF0010320460DF10B02DF
:10DC40002946009303ABD847044600283AD19DF8F3
:10DC50000B20B2B39DF80C309BB3164695F87D208F
:10DC600032B1B20703F0020337D5B3B302231E4625
:10DC7000FF2285F82D21B9F1000F28D195F82C212C
:10DC800002F0FF041ABB85F82C8103A985F82E61E8
:10DC9000284685F82F31BB88A5F83031BA78ADF821
:10DCA0000E308DF80C20FA788DF80D200CF00CF861
